{
  "_format": "hh-sol-artifact-1",
  "contractName": "WalkBadgeOracle",
  "sourceName": "contracts/WalkBadgeOracle.sol",
  "abi": [
    {
      "inputs": [
        {
          "internalType": "address",
          "name": "_WT",
          "type": "address"
        },
        {
          "internalType": "address",
          "name": "_link",
          "type": "address"
        }
      ],
      "stateMutability": "nonpayable",
      "type": "constructor"
    },
    {
      "anonymous": false,
      "inputs": [
        {
          "indexed": true,
          "internalType": "bytes32",
          "name": "id",
          "type": "bytes32"
        }
      ],
      "name": "ChainlinkCancelled",
      "type": "event"
    },
    {
      "anonymous": false,
      "inputs": [
        {
          "indexed": true,
          "internalType": "bytes32",
          "name": "id",
          "type": "bytes32"
        }
      ],
      "name": "ChainlinkFulfilled",
      "type": "event"
    },
    {
      "anonymous": false,
      "inputs": [
        {
          "indexed": true,
          "internalType": "bytes32",
          "name": "id",
          "type": "bytes32"
        }
      ],
      "name": "ChainlinkRequested",
      "type": "event"
    },
    {
      "anonymous": false,
      "inputs": [
        {
          "indexed": false,
          "internalType": "address",
          "name": "payee",
          "type": "address"
        },
        {
          "indexed": false,
          "internalType": "uint256",
          "name": "amount",
          "type": "uint256"
        },
        {
          "indexed": false,
          "internalType": "string",
          "name": "action",
          "type": "string"
        }
      ],
      "name": "paidTo",
      "type": "event"
    },
    {
      "anonymous": false,
      "inputs": [
        {
          "indexed": false,
          "internalType": "address",
          "name": "walker",
          "type": "address"
        },
        {
          "indexed": false,
          "internalType": "uint256",
          "name": "level",
          "type": "uint256"
        },
        {
          "indexed": false,
          "internalType": "uint256",
          "name": "timeWalked",
          "type": "uint256"
        },
        {
          "indexed": false,
          "internalType": "uint256",
          "name": "distanceWalked",
          "type": "uint256"
        },
        {
          "indexed": false,
          "internalType": "uint256",
          "name": "dogsWalked",
          "type": "uint256"
        },
        {
          "indexed": false,
          "internalType": "uint256",
          "name": "dateUpdated",
          "type": "uint256"
        },
        {
          "indexed": false,
          "internalType": "uint256",
          "name": "payUpdated",
          "type": "uint256"
        }
      ],
      "name": "updatedBadge",
      "type": "event"
    },
    {
      "inputs": [
        {
          "internalType": "address",
          "name": "",
          "type": "address"
        }
      ],
      "name": "AddresstoBadge",
      "outputs": [
        {
          "internalType": "address",
          "name": "walker",
          "type": "address"
        },
        {
          "internalType": "uint256",
          "name": "level",
          "type": "uint256"
        },
        {
          "internalType": "uint256",
          "name": "timeWalked",
          "type": "uint256"
        },
        {
          "internalType": "uint256",
          "name": "distanceWalked",
          "type": "uint256"
        },
        {
          "internalType": "uint256",
          "name": "dogsWalked",
          "type": "uint256"
        },
        {
          "internalType": "uint256",
          "name": "totalPaid",
          "type": "uint256"
        }
      ],
      "stateMutability": "view",
      "type": "function"
    },
    {
      "inputs": [
        {
          "internalType": "uint256",
          "name": "",
          "type": "uint256"
        }
      ],
      "name": "assignedAddresses",
      "outputs": [
        {
          "internalType": "address",
          "name": "",
          "type": "address"
        }
      ],
      "stateMutability": "view",
      "type": "function"
    },
    {
      "inputs": [
        {
          "internalType": "address",
          "name": "_walker",
          "type": "address"
        }
      ],
      "name": "createBadge",
      "outputs": [],
      "stateMutability": "nonpayable",
      "type": "function"
    },
    {
      "inputs": [
        {
          "internalType": "bytes32",
          "name": "_requestId",
          "type": "bytes32"
        },
        {
          "internalType": "uint256",
          "name": "results",
          "type": "uint256"
        }
      ],
      "name": "fulfillStats",
      "outputs": [],
      "stateMutability": "nonpayable",
      "type": "function"
    },
    {
      "inputs": [],
      "name": "getAllAddresses",
      "outputs": [
        {
          "internalType": "address[]",
          "name": "addresses",
          "type": "address[]"
        }
      ],
      "stateMutability": "view",
      "type": "function"
    },
    {
      "inputs": [
        {
          "internalType": "address",
          "name": "_walker",
          "type": "address"
        }
      ],
      "name": "getBadge",
      "outputs": [
        {
          "components": [
            {
              "internalType": "address",
              "name": "walker",
              "type": "address"
            },
            {
              "internalType": "uint256",
              "name": "level",
              "type": "uint256"
            },
            {
              "internalType": "uint256",
              "name": "timeWalked",
              "type": "uint256"
            },
            {
              "internalType": "uint256",
              "name": "distanceWalked",
              "type": "uint256"
            },
            {
              "internalType": "uint256",
              "name": "dogsWalked",
              "type": "uint256"
            },
            {
              "internalType": "uint256",
              "name": "totalPaid",
              "type": "uint256"
            }
          ],
          "internalType": "struct WalkBadgeOracle.WalkerLevel",
          "name": "_badge",
          "type": "tuple"
        }
      ],
      "stateMutability": "view",
      "type": "function"
    },
    {
      "inputs": [],
      "name": "oracle",
      "outputs": [
        {
          "internalType": "address",
          "name": "",
          "type": "address"
        }
      ],
      "stateMutability": "view",
      "type": "function"
    },
    {
      "inputs": [
        {
          "internalType": "uint256",
          "name": "_value",
          "type": "uint256"
        }
      ],
      "name": "recieveLink",
      "outputs": [],
      "stateMutability": "nonpayable",
      "type": "function"
    },
    {
      "inputs": [],
      "name": "reqIDtest",
      "outputs": [
        {
          "internalType": "bytes32",
          "name": "",
          "type": "bytes32"
        }
      ],
      "stateMutability": "view",
      "type": "function"
    },
    {
      "inputs": [
        {
          "internalType": "bytes32",
          "name": "",
          "type": "bytes32"
        }
      ],
      "name": "reqId_Address",
      "outputs": [
        {
          "internalType": "address",
          "name": "",
          "type": "address"
        }
      ],
      "stateMutability": "view",
      "type": "function"
    },
    {
      "inputs": [
        {
          "internalType": "address",
          "name": "_oracle",
          "type": "address"
        }
      ],
      "name": "setOracleAddress",
      "outputs": [],
      "stateMutability": "nonpayable",
      "type": "function"
    },
    {
      "inputs": [],
      "name": "shelter",
      "outputs": [
        {
          "internalType": "address",
          "name": "",
          "type": "address"
        }
      ],
      "stateMutability": "view",
      "type": "function"
    },
    {
      "inputs": [
        {
          "internalType": "address",
          "name": "_walker",
          "type": "address"
        }
      ],
      "name": "updateBadge",
      "outputs": [],
      "stateMutability": "nonpayable",
      "type": "function"
    },
    {
      "inputs": [
        {
          "internalType": "address",
          "name": "_walker",
          "type": "address"
        }
      ],
      "name": "updateWalkerStats",
      "outputs": [],
      "stateMutability": "nonpayable",
      "type": "function"
    }
  ],
  "bytecode": "0x608060405260016005553480156200001657600080fd5b5060405162002b6538038062002b6583398181016040528101906200003c9190620002d9565b600160008190555033600760006101000a81548173ffffffffffffffffffffffffffffffffffffffff021916908373ffffffffffffffffffffffffffffffffffffffff16021790555081600960006101000a81548173ffffffffffffffffffffffffffffffffffffffff021916908373ffffffffffffffffffffffffffffffffffffffff16021790555080600a60006101000a81548173ffffffffffffffffffffffffffffffffffffffff021916908373ffffffffffffffffffffffffffffffffffffffff16021790555062000117620001aa60201b60201c565b73f5a4036ca35b9c017efa49932dca4bc8cc781aa4600b60006101000a81548173ffffffffffffffffffffffffffffffffffffffff021916908373ffffffffffffffffffffffffffffffffffffffff1602179055507f3932386666643631326564343432313439623034366435663830376339313436600d81905550670de0b6b3a7640000600c81905550505062000368565b6200025073c89bd4e1632d3a43cb03aaad5262cbe4038bc57173ffffffffffffffffffffffffffffffffffffffff166338cc48316040518163ffffffff1660e01b815260040160206040518083038186803b1580156200020957600080fd5b505afa1580156200021e573d6000803e3d6000fd5b505050506040513d601f19601f82011682018060405250810190620002449190620002ad565b6200025260201b60201c565b565b80600360006101000a81548173ffffffffffffffffffffffffffffffffffffffff021916908373ffffffffffffffffffffffffffffffffffffffff16021790555050565b600081519050620002a7816200034e565b92915050565b600060208284031215620002c057600080fd5b6000620002d08482850162000296565b91505092915050565b60008060408385031215620002ed57600080fd5b6000620002fd8582860162000296565b9250506020620003108582860162000296565b9150509250929050565b600062000327826200032e565b9050919050565b600073ffffffffffffffffffffffffffffffffffffffff82169050919050565b62000359816200031a565b81146200036557600080fd5b50565b6127ed80620003786000396000f3fe608060405234801561001057600080fd5b50600436106100ea5760003560e01c80637dc0d1d01161008c578063a0844ffd11610066578063a0844ffd14610235578063bf157be51461026a578063c254de8814610288578063e1b93ab8146102b8576100ea565b80637dc0d1d0146101c95780638ce1b5c6146101e75780639516a10414610217576100ea565b80633c155431116100c85780633c155431146101455780634c69c00f14610175578063570f7a99146101915780635a70a436146101ad576100ea565b8063130be7c5146100ef5780632675fc271461010b5780633a44bc3e14610129575b600080fd5b61010960048036038101906101049190611b79565b6102d4565b005b6101136105f7565b60405161012091906123b9565b60405180910390f35b610143600480360381019061013e9190611bf4565b6105fd565b005b61015f600480360381019061015a9190611bcb565b610758565b60405161016c9190612176565b60405180910390f35b61018f600480360381019061018a9190611b79565b61078b565b005b6101ab60048036038101906101a69190611c71565b61085f565b005b6101c760048036038101906101c29190611b79565b610914565b005b6101d1610b64565b6040516101de9190612176565b60405180910390f35b61020160048036038101906101fc9190611c71565b610b8a565b60405161020e9190612176565b60405180910390f35b61021f610bc6565b60405161022c9190612397565b60405180910390f35b61024f600480360381019061024a9190611b79565b610c54565b604051610261969594939291906122c7565b60405180910390f35b610272610cb0565b60405161027f9190612176565b60405180910390f35b6102a2600480360381019061029d9190611b79565b610cd6565b6040516102af91906124f6565b60405180910390f35b6102d260048036038101906102cd9190611b79565b610db7565b005b6002600054141561031a576040517f08c379a0000000000000000000000000000000000000000000000000000000008152600401610311906124d6565b60405180910390fd5b60026000819055506001600f60008373ffffffffffffffffffffffffffffffffffffffff1673ffffffffffffffffffffffffffffffffffffffff1681526020019081526020016000206001015410156103a8576040517f08c379a000000000000000000000000000000000000000000000000000000000815260040161039f906124b6565b60405180910390fd5b60006103b382610fc1565b905080600f60008473ffffffffffffffffffffffffffffffffffffffff1673ffffffffffffffffffffffffffffffffffffffff168152602001908152602001600020600101819055507f4496c4597f63da1e94687c289afc9d9292643cfa9b877b18cf00546b10ab3fa0600f60008473ffffffffffffffffffffffffffffffffffffffff1673ffffffffffffffffffffffffffffffffffffffff16815260200190815260200160002060000160009054906101000a900473ffffffffffffffffffffffffffffffffffffffff16600f60008573ffffffffffffffffffffffffffffffffffffffff1673ffffffffffffffffffffffffffffffffffffffff16815260200190815260200160002060010154600f60008673ffffffffffffffffffffffffffffffffffffffff1673ffffffffffffffffffffffffffffffffffffffff16815260200190815260200160002060020154600f60008773ffffffffffffffffffffffffffffffffffffffff1673ffffffffffffffffffffffffffffffffffffffff16815260200190815260200160002060030154600f60008873ffffffffffffffffffffffffffffffffffffffff1673ffffffffffffffffffffffffffffffffffffffff16815260200190815260200160002060040154600f60008973ffffffffffffffffffffffffffffffffffffffff1673ffffffffffffffffffffffffffffffffffffffff16815260200190815260200160002060050154426040516105e39796959493929190612328565b60405180910390a150600160008190555050565b600e5481565b60006010600084815260200190815260200160002060009054906101000a900473ffffffffffffffffffffffffffffffffffffffff1690506000600f60008373ffffffffffffffffffffffffffffffffffffffff1673ffffffffffffffffffffffffffffffffffffffff1681526020019081526020016000206005015490506000678ac7230489e800009050600960009054906101000a900473ffffffffffffffffffffffffffffffffffffffff1673ffffffffffffffffffffffffffffffffffffffff16632a7cd7b982856040518363ffffffff1660e01b81526004016106e6929190612511565b600060405180830381600087803b15801561070057600080fd5b505af1158015610714573d6000803e3d6000fd5b505050507f261dadea41182c9a8466052d05e20703611ed1a127269955867910f66f73e64133826040516107499291906121c8565b60405180910390a15050505050565b60106020528060005260406000206000915054906101000a900473ffffffffffffffffffffffffffffffffffffffff1681565b600760009054906101000a900473ffffffffffffffffffffffffffffffffffffffff1673ffffffffffffffffffffffffffffffffffffffff163373ffffffffffffffffffffffffffffffffffffffff161461081b576040517f08c379a000000000000000000000000000000000000000000000000000000000815260040161081290612476565b60405180910390fd5b80600b60006101000a81548173ffffffffffffffffffffffffffffffffffffffff021916908373ffffffffffffffffffffffffffffffffffffffff16021790555050565b600a60009054906101000a900473ffffffffffffffffffffffffffffffffffffffff1673ffffffffffffffffffffffffffffffffffffffff166323b872dd3330846040518463ffffffff1660e01b81526004016108be93929190612191565b602060405180830381600087803b1580156108d857600080fd5b505af11580156108ec573d6000803e3d6000fd5b505050506040513d601f19601f820116820180604052508101906109109190611ba2565b5050565b6002600054141561095a576040517f08c379a0000000000000000000000000000000000000000000000000000000008152600401610951906124d6565b60405180910390fd5b60026000819055506000600f60008373ffffffffffffffffffffffffffffffffffffffff1673ffffffffffffffffffffffffffffffffffffffff16815260200190815260200160002060010154146109e7576040517f08c379a00000000000000000000000000000000000000000000000000000000081526004016109de90612456565b60405180910390fd5b6109ef6119fe565b6040518060c001604052808373ffffffffffffffffffffffffffffffffffffffff168152602001600181526020016000815260200160008152602001600081526020016000815250905080600f60008473ffffffffffffffffffffffffffffffffffffffff1673ffffffffffffffffffffffffffffffffffffffff16815260200190815260200160002060008201518160000160006101000a81548173ffffffffffffffffffffffffffffffffffffffff021916908373ffffffffffffffffffffffffffffffffffffffff1602179055506020820151816001015560408201518160020155606082015181600301556080820151816004015560a082015181600501559050506008829080600181540180825580915050600190039060005260206000200160009091909190916101000a81548173ffffffffffffffffffffffffffffffffffffffff021916908373ffffffffffffffffffffffffffffffffffffffff16021790555050600160008190555050565b600b60009054906101000a900473ffffffffffffffffffffffffffffffffffffffff1681565b60088181548110610b9757fe5b906000526020600020016000915054906101000a900473ffffffffffffffffffffffffffffffffffffffff1681565b60606008805480602002602001604051908101604052809291908181526020018280548015610c4a57602002820191906000526020600020905b8160009054906101000a900473ffffffffffffffffffffffffffffffffffffffff1673ffffffffffffffffffffffffffffffffffffffff1681526020019060010190808311610c00575b5050505050905090565b600f6020528060005260406000206000915090508060000160009054906101000a900473ffffffffffffffffffffffffffffffffffffffff16908060010154908060020154908060030154908060040154908060050154905086565b600760009054906101000a900473ffffffffffffffffffffffffffffffffffffffff1681565b610cde6119fe565b600f60008373ffffffffffffffffffffffffffffffffffffffff1673ffffffffffffffffffffffffffffffffffffffff1681526020019081526020016000206040518060c00160405290816000820160009054906101000a900473ffffffffffffffffffffffffffffffffffffffff1673ffffffffffffffffffffffffffffffffffffffff1673ffffffffffffffffffffffffffffffffffffffff168152602001600182015481526020016002820154815260200160038201548152602001600482015481526020016005820154815250509050919050565b6001600f60008373ffffffffffffffffffffffffffffffffffffffff1673ffffffffffffffffffffffffffffffffffffffff168152602001908152602001600020600101541015610e3d576040517f08c379a0000000000000000000000000000000000000000000000000000000008152600401610e34906123f6565b60405180910390fd5b610e45611a4a565b610e59600d5430633a44bc3e60e01b61113f565b9050610f306040518060400160405280600781526020017f616464726573730000000000000000000000000000000000000000000000000081525073__$b417da84646892089ddb2453908ed8f0ce$__635e57966d856040518263ffffffff1660e01b8152600401610ecb919061215b565b60006040518083038186803b158015610ee357600080fd5b505af4158015610ef7573d6000803e3d6000fd5b505050506040513d6000823e3d601f19601f82011682018060405250810190610f209190611c30565b836111709092919063ffffffff16565b6000610f61600b60009054906101000a900473ffffffffffffffffffffffffffffffffffffffff1683600c546111a3565b905080600e81905550826010600083815260200190815260200160002060006101000a81548173ffffffffffffffffffffffffffffffffffffffff021916908373ffffffffffffffffffffffffffffffffffffffff160217905550505050565b600080600f60008473ffffffffffffffffffffffffffffffffffffffff1673ffffffffffffffffffffffffffffffffffffffff1681526020019081526020016000206003015490506000600f60008573ffffffffffffffffffffffffffffffffffffffff1673ffffffffffffffffffffffffffffffffffffffff1681526020019081526020016000206002015490506000600f60008673ffffffffffffffffffffffffffffffffffffffff1673ffffffffffffffffffffffffffffffffffffffff16815260200190815260200160002060040154905060006110f76110b0600a8461136d90919063ffffffff16565b6110e96110c76002876113dd90919063ffffffff16565b6110db60028961136d90919063ffffffff16565b61142790919063ffffffff16565b61142790919063ffffffff16565b9050605081111561110f57600294505050505061113a565b601e8111801561111f5750605081105b1561113157600194505050505061113a565b60009450505050505b919050565b611147611a4a565b61114f611a4a565b6111668585858461147c909392919063ffffffff16565b9150509392505050565b61118782846080015161152c90919063ffffffff16565b61119e81846080015161152c90919063ffffffff16565b505050565b6000306005546040516020016111ba92919061212f565b604051602081830303815290604052805190602001209050600554836060018181525050836006600083815260200190815260200160002060006101000a81548173ffffffffffffffffffffffffffffffffffffffff021916908373ffffffffffffffffffffffffffffffffffffffff160217905550807fb5e6e01e79f91267dc17b4e6314d5d4d03593d2ceee0fbb452b750bd70ea5af960405160405180910390a2600360009054906101000a900473ffffffffffffffffffffffffffffffffffffffff1673ffffffffffffffffffffffffffffffffffffffff16634000aea085846112a687611551565b6040518463ffffffff1660e01b81526004016112c493929190612289565b602060405180830381600087803b1580156112de57600080fd5b505af11580156112f2573d6000803e3d6000fd5b505050506040513d601f19601f820116820180604052508101906113169190611ba2565b611355576040517f08c379a000000000000000000000000000000000000000000000000000000000815260040161134c90612436565b60405180910390fd5b60016005600082825401925050819055509392505050565b60008083141561138057600090506113d7565b600082840290508284828161139157fe5b04146113d2576040517f08c379a00000000000000000000000000000000000000000000000000000000081526004016113c990612496565b60405180910390fd5b809150505b92915050565b600061141f83836040518060400160405280601a81526020017f536166654d6174683a206469766973696f6e206279207a65726f0000000000008152506115f8565b905092915050565b600080828401905083811015611472576040517f08c379a000000000000000000000000000000000000000000000000000000000815260040161146990612416565b60405180910390fd5b8091505092915050565b611484611a4a565b6114948560800151610100611659565b508385600001818152505082856020019073ffffffffffffffffffffffffffffffffffffffff16908173ffffffffffffffffffffffffffffffffffffffff16815250508185604001907bffffffffffffffffffffffffffffffffffffffffffffffffffffffff191690817bffffffffffffffffffffffffffffffffffffffffffffffffffffffff191681525050849050949350505050565b61153982600383516116ad565b61154c81836117f290919063ffffffff16565b505050565b6060634042994660e01b60008084600001518560200151866040015187606001516001896080015160000151604051602401611594989796959493929190612204565b604051602081830303815290604052907bffffffffffffffffffffffffffffffffffffffffffffffffffffffff19166020820180517bffffffffffffffffffffffffffffffffffffffffffffffffffffffff83818316178352505050509050919050565b6000808311829061163f576040517f08c379a000000000000000000000000000000000000000000000000000000000815260040161163691906123d4565b60405180910390fd5b50600083858161164b57fe5b049050809150509392505050565b611661611ab7565b60006020838161166d57fe5b0614611686576020828161167d57fe5b06602003820191505b81836020018181525050604051808452600081528281016020016040525082905092915050565b601781116116da576116d48160058460ff16901b60ff16178461181490919063ffffffff16565b506117ed565b60ff811161171c576116ff601860058460ff16901b178461181490919063ffffffff16565b50611716816001856118349092919063ffffffff16565b506117ec565b61ffff811161175f57611742601960058460ff16901b178461181490919063ffffffff16565b50611759816002856118349092919063ffffffff16565b506117eb565b63ffffffff81116117a457611787601a60058460ff16901b178461181490919063ffffffff16565b5061179e816004856118349092919063ffffffff16565b506117ea565b67ffffffffffffffff81116117e9576117d0601b60058460ff16901b178461181490919063ffffffff16565b506117e7816008856118349092919063ffffffff16565b505b5b5b5b5b505050565b6117fa611ab7565b61180c83846000015151848551611856565b905092915050565b61181c611ab7565b61182c838460000151518461190f565b905092915050565b61183c611ab7565b61184d84856000015151858561195d565b90509392505050565b61185e611ab7565b825182111561186c57600080fd5b846020015182850111156118975761189685600261189088602001518887016119be565b026119da565b5b6000808651805187602083010193508088870111156118b65787860182525b60208701925050505b602084106118e257805182526020820191506020810190506020840393506118bf565b60006001856020036101000a03905080198251168184511681811785525050879350505050949350505050565b611917611ab7565b83602001518310611934576119338460028660200151026119da565b5b8351805160208583010184815381861415611950576001820183525b5050508390509392505050565b611965611ab7565b8460200151848301111561198357611982856002868501026119da565b5b60006001836101000a03905085518386820101858319825116178152815185880111156119b05784870182525b505085915050949350505050565b6000818311156119d0578290506119d4565b8190505b92915050565b6060826000015190506119ed8383611659565b506119f883826117f2565b50505050565b6040518060c00160405280600073ffffffffffffffffffffffffffffffffffffffff16815260200160008152602001600081526020016000815260200160008152602001600081525090565b6040518060a0016040528060008019168152602001600073ffffffffffffffffffffffffffffffffffffffff16815260200160007bffffffffffffffffffffffffffffffffffffffffffffffffffffffff1916815260200160008152602001611ab1611ab7565b81525090565b604051806040016040528060608152602001600081525090565b600081359050611ae08161275b565b92915050565b600081519050611af581612772565b92915050565b600081359050611b0a81612789565b92915050565b600082601f830112611b2157600080fd5b8151611b34611b2f82612567565b61253a565b91508082526020830160208301858383011115611b5057600080fd5b611b5b8382846126dc565b50505092915050565b600081359050611b73816127a0565b92915050565b600060208284031215611b8b57600080fd5b6000611b9984828501611ad1565b91505092915050565b600060208284031215611bb457600080fd5b6000611bc284828501611ae6565b91505092915050565b600060208284031215611bdd57600080fd5b6000611beb84828501611afb565b91505092915050565b60008060408385031215611c0757600080fd5b6000611c1585828601611afb565b9250506020611c2685828601611b64565b9150509250929050565b600060208284031215611c4257600080fd5b600082015167ffffffffffffffff811115611c5c57600080fd5b611c6884828501611b10565b91505092915050565b600060208284031215611c8357600080fd5b6000611c9184828501611b64565b91505092915050565b6000611ca68383611cc1565b60208301905092915050565b611cbb81612682565b82525050565b611cca81612604565b82525050565b611cd981612604565b82525050565b611ce881612604565b82525050565b6000611cf9826125a3565b611d0381856125d1565b9350611d0e83612593565b8060005b83811015611d3f578151611d268882611c9a565b9750611d31836125c4565b925050600181019050611d12565b5085935050505092915050565b611d5581612622565b82525050565b611d648161262c565b82525050565b6000611d75826125ae565b611d7f81856125e2565b9350611d8f8185602086016126dc565b611d988161273d565b840191505092915050565b611db4611daf82612694565b61270f565b82525050565b6000611dc5826125b9565b611dcf81856125f3565b9350611ddf8185602086016126dc565b611de88161273d565b840191505092915050565b6000611e00601a836125f3565b91507f626164676520686173206e6f74206265656e20637265617465640000000000006000830152602082019050919050565b6000611e40601b836125f3565b91507f536166654d6174683a206164646974696f6e206f766572666c6f7700000000006000830152602082019050919050565b6000611e806023836125f3565b91507f756e61626c6520746f207472616e73666572416e6443616c6c20746f206f726160008301527f636c6500000000000000000000000000000000000000000000000000000000006020830152604082019050919050565b6000611ee6601f836125f3565b91507f6261646765742068617320616c7265616479206265656e2063726561746564006000830152602082019050919050565b6000611f26601e836125f3565b91507f6f6e6c79207368656c7465722063616e206368616e6765206f7261636c6500006000830152602082019050919050565b6000611f666021836125f3565b91507f536166654d6174683a206d756c7469706c69636174696f6e206f766572666c6f60008301527f77000000000000000000000000000000000000000000000000000000000000006020830152604082019050919050565b6000611fcc601b836125f3565b91507f62616467657420686173206e6f74206265656e206372656174656400000000006000830152602082019050919050565b600061200c6008836125f3565b91507f57616c6b205061790000000000000000000000000000000000000000000000006000830152602082019050919050565b600061204c601f836125f3565b91507f5265656e7472616e637947756172643a207265656e7472616e742063616c6c006000830152602082019050919050565b60c0820160008201516120956000850182611cc1565b5060208201516120a860208501826120fa565b5060408201516120bb60408501826120fa565b5060608201516120ce60608501826120fa565b5060808201516120e160808501826120fa565b5060a08201516120f460a08501826120fa565b50505050565b61210381612678565b82525050565b61211281612678565b82525050565b61212961212482612678565b612733565b82525050565b600061213b8285611da3565b60148201915061214b8284612118565b6020820191508190509392505050565b60006020820190506121706000830184611cdf565b92915050565b600060208201905061218b6000830184611cd0565b92915050565b60006060820190506121a66000830186611cb2565b6121b36020830185611cd0565b6121c06040830184612109565b949350505050565b60006060820190506121dd6000830185611cb2565b6121ea6020830184612109565b81810360408301526121fb81611fff565b90509392505050565b60006101008201905061221a600083018b611cd0565b612227602083018a612109565b6122346040830189611d4c565b6122416060830188611cd0565b61224e6080830187611d5b565b61225b60a0830186612109565b61226860c0830185612109565b81810360e083015261227a8184611d6a565b90509998505050505050505050565b600060608201905061229e6000830186611cd0565b6122ab6020830185612109565b81810360408301526122bd8184611d6a565b9050949350505050565b600060c0820190506122dc6000830189611cd0565b6122e96020830188612109565b6122f66040830187612109565b6123036060830186612109565b6123106080830185612109565b61231d60a0830184612109565b979650505050505050565b600060e08201905061233d600083018a611cd0565b61234a6020830189612109565b6123576040830188612109565b6123646060830187612109565b6123716080830186612109565b61237e60a0830185612109565b61238b60c0830184612109565b98975050505050505050565b600060208201905081810360008301526123b18184611cee565b905092915050565b60006020820190506123ce6000830184611d4c565b92915050565b600060208201905081810360008301526123ee8184611dba565b905092915050565b6000602082019050818103600083015261240f81611df3565b9050919050565b6000602082019050818103600083015261242f81611e33565b9050919050565b6000602082019050818103600083015261244f81611e73565b9050919050565b6000602082019050818103600083015261246f81611ed9565b9050919050565b6000602082019050818103600083015261248f81611f19565b9050919050565b600060208201905081810360008301526124af81611f59565b9050919050565b600060208201905081810360008301526124cf81611fbf565b9050919050565b600060208201905081810360008301526124ef8161203f565b9050919050565b600060c08201905061250b600083018461207f565b92915050565b60006040820190506125266000830185612109565b6125336020830184611cd0565b9392505050565b6000604051905081810181811067ffffffffffffffff8211171561255d57600080fd5b8060405250919050565b600067ffffffffffffffff82111561257e57600080fd5b601f19601f8301169050602081019050919050565b6000819050602082019050919050565b600081519050919050565b600081519050919050565b600081519050919050565b6000602082019050919050565b600082825260208201905092915050565b600082825260208201905092915050565b600082825260208201905092915050565b600061260f82612658565b9050919050565b60008115159050919050565b6000819050919050565b60007fffffffff0000000000000000000000000000000000000000000000000000000082169050919050565b600073ffffffffffffffffffffffffffffffffffffffff82169050919050565b6000819050919050565b600061268d826126b8565b9050919050565b600061269f826126a6565b9050919050565b60006126b182612658565b9050919050565b60006126c3826126ca565b9050919050565b60006126d582612658565b9050919050565b60005b838110156126fa5780820151818401526020810190506126df565b83811115612709576000848401525b50505050565b600061271a82612721565b9050919050565b600061272c8261274e565b9050919050565b6000819050919050565b6000601f19601f8301169050919050565b60008160601b9050919050565b61276481612604565b811461276f57600080fd5b50565b61277b81612616565b811461278657600080fd5b50565b61279281612622565b811461279d57600080fd5b50565b6127a981612678565b81146127b457600080fd5b5056fea2646970667358221220300b4162efab6c91964d214b909e9e50e2f153afa2c61ac9da4e0f6e722aa3ca64736f6c634300060c0033",
  "linkReferences": {
    "contracts/typesLibrary.sol": {
      "typesLibrary": [
        {
          "length": 20,
          "start": 4622
        }
      ]
    }
  },
  "deployedLinkReferences": {
    "contracts/typesLibrary.sol": {
      "typesLibrary": [
        {
          "length": 20,
          "start": 3734
        }
      ]
    }
  }
}