{
  "_format": "hh-sol-artifact-1",
  "contractName": "WalkBadgeOracle",
  "sourceName": "contracts/WalkBadgeOracle.sol",
  "abi": [
    {
      "inputs": [
        {
          "internalType": "address",
          "name": "_WT",
          "type": "address"
        },
        {
          "internalType": "address",
          "name": "_link",
          "type": "address"
        }
      ],
      "stateMutability": "nonpayable",
      "type": "constructor"
    },
    {
      "anonymous": false,
      "inputs": [
        {
          "indexed": true,
          "internalType": "bytes32",
          "name": "id",
          "type": "bytes32"
        }
      ],
      "name": "ChainlinkCancelled",
      "type": "event"
    },
    {
      "anonymous": false,
      "inputs": [
        {
          "indexed": true,
          "internalType": "bytes32",
          "name": "id",
          "type": "bytes32"
        }
      ],
      "name": "ChainlinkFulfilled",
      "type": "event"
    },
    {
      "anonymous": false,
      "inputs": [
        {
          "indexed": true,
          "internalType": "bytes32",
          "name": "id",
          "type": "bytes32"
        }
      ],
      "name": "ChainlinkRequested",
      "type": "event"
    },
    {
      "anonymous": false,
      "inputs": [
        {
          "indexed": false,
          "internalType": "address",
          "name": "payee",
          "type": "address"
        },
        {
          "indexed": false,
          "internalType": "uint256",
          "name": "amount",
          "type": "uint256"
        },
        {
          "indexed": false,
          "internalType": "string",
          "name": "action",
          "type": "string"
        },
        {
          "indexed": false,
          "internalType": "uint256",
          "name": "time",
          "type": "uint256"
        }
      ],
      "name": "paidTo",
      "type": "event"
    },
    {
      "anonymous": false,
      "inputs": [
        {
          "indexed": false,
          "internalType": "address",
          "name": "walker",
          "type": "address"
        },
        {
          "indexed": false,
          "internalType": "uint256",
          "name": "level",
          "type": "uint256"
        },
        {
          "indexed": false,
          "internalType": "uint256",
          "name": "timeWalked",
          "type": "uint256"
        },
        {
          "indexed": false,
          "internalType": "uint256",
          "name": "distanceWalked",
          "type": "uint256"
        },
        {
          "indexed": false,
          "internalType": "uint256",
          "name": "dogsWalked",
          "type": "uint256"
        },
        {
          "indexed": false,
          "internalType": "uint256",
          "name": "dateUpdated",
          "type": "uint256"
        },
        {
          "indexed": false,
          "internalType": "uint256",
          "name": "payUpdated",
          "type": "uint256"
        }
      ],
      "name": "updatedBadge",
      "type": "event"
    },
    {
      "inputs": [
        {
          "internalType": "address",
          "name": "",
          "type": "address"
        }
      ],
      "name": "AddresstoBadge",
      "outputs": [
        {
          "internalType": "address",
          "name": "walker",
          "type": "address"
        },
        {
          "internalType": "uint256",
          "name": "level",
          "type": "uint256"
        },
        {
          "internalType": "uint256",
          "name": "timeWalked",
          "type": "uint256"
        },
        {
          "internalType": "uint256",
          "name": "distanceWalked",
          "type": "uint256"
        },
        {
          "internalType": "uint256",
          "name": "dogsWalked",
          "type": "uint256"
        },
        {
          "internalType": "uint256",
          "name": "totalPaid",
          "type": "uint256"
        }
      ],
      "stateMutability": "view",
      "type": "function"
    },
    {
      "inputs": [
        {
          "internalType": "uint256",
          "name": "",
          "type": "uint256"
        }
      ],
      "name": "assignedAddresses",
      "outputs": [
        {
          "internalType": "address",
          "name": "",
          "type": "address"
        }
      ],
      "stateMutability": "view",
      "type": "function"
    },
    {
      "inputs": [
        {
          "internalType": "address",
          "name": "_walker",
          "type": "address"
        }
      ],
      "name": "createBadge",
      "outputs": [],
      "stateMutability": "nonpayable",
      "type": "function"
    },
    {
      "inputs": [],
      "name": "encoded",
      "outputs": [
        {
          "internalType": "string",
          "name": "",
          "type": "string"
        }
      ],
      "stateMutability": "view",
      "type": "function"
    },
    {
      "inputs": [
        {
          "internalType": "bytes32",
          "name": "_requestId",
          "type": "bytes32"
        },
        {
          "internalType": "uint256",
          "name": "results",
          "type": "uint256"
        }
      ],
      "name": "fulfillStats",
      "outputs": [],
      "stateMutability": "nonpayable",
      "type": "function"
    },
    {
      "inputs": [],
      "name": "getAllAddresses",
      "outputs": [
        {
          "internalType": "address[]",
          "name": "addresses",
          "type": "address[]"
        }
      ],
      "stateMutability": "view",
      "type": "function"
    },
    {
      "inputs": [
        {
          "internalType": "address",
          "name": "_walker",
          "type": "address"
        }
      ],
      "name": "getBadge",
      "outputs": [
        {
          "components": [
            {
              "internalType": "address",
              "name": "walker",
              "type": "address"
            },
            {
              "internalType": "uint256",
              "name": "level",
              "type": "uint256"
            },
            {
              "internalType": "uint256",
              "name": "timeWalked",
              "type": "uint256"
            },
            {
              "internalType": "uint256",
              "name": "distanceWalked",
              "type": "uint256"
            },
            {
              "internalType": "uint256",
              "name": "dogsWalked",
              "type": "uint256"
            },
            {
              "internalType": "uint256",
              "name": "totalPaid",
              "type": "uint256"
            }
          ],
          "internalType": "struct WalkBadgeOracle.WalkerLevel",
          "name": "_badge",
          "type": "tuple"
        }
      ],
      "stateMutability": "view",
      "type": "function"
    },
    {
      "inputs": [],
      "name": "oracle",
      "outputs": [
        {
          "internalType": "address",
          "name": "",
          "type": "address"
        }
      ],
      "stateMutability": "view",
      "type": "function"
    },
    {
      "inputs": [
        {
          "internalType": "uint256",
          "name": "_value",
          "type": "uint256"
        }
      ],
      "name": "recieveLink",
      "outputs": [],
      "stateMutability": "nonpayable",
      "type": "function"
    },
    {
      "inputs": [],
      "name": "reqIDtest",
      "outputs": [
        {
          "internalType": "bytes32",
          "name": "",
          "type": "bytes32"
        }
      ],
      "stateMutability": "view",
      "type": "function"
    },
    {
      "inputs": [
        {
          "internalType": "bytes32",
          "name": "",
          "type": "bytes32"
        }
      ],
      "name": "reqId_Address",
      "outputs": [
        {
          "internalType": "address",
          "name": "",
          "type": "address"
        }
      ],
      "stateMutability": "view",
      "type": "function"
    },
    {
      "inputs": [
        {
          "internalType": "address",
          "name": "_oracle",
          "type": "address"
        }
      ],
      "name": "setOracleAddress",
      "outputs": [],
      "stateMutability": "nonpayable",
      "type": "function"
    },
    {
      "inputs": [],
      "name": "shelter",
      "outputs": [
        {
          "internalType": "address",
          "name": "",
          "type": "address"
        }
      ],
      "stateMutability": "view",
      "type": "function"
    },
    {
      "inputs": [],
      "name": "testReturn",
      "outputs": [
        {
          "internalType": "uint256",
          "name": "",
          "type": "uint256"
        }
      ],
      "stateMutability": "view",
      "type": "function"
    },
    {
      "inputs": [
        {
          "internalType": "address",
          "name": "_walker",
          "type": "address"
        }
      ],
      "name": "updateBadgeLevel",
      "outputs": [],
      "stateMutability": "nonpayable",
      "type": "function"
    },
    {
      "inputs": [
        {
          "internalType": "address",
          "name": "_walker",
          "type": "address"
        }
      ],
      "name": "updateWalkerStats",
      "outputs": [],
      "stateMutability": "nonpayable",
      "type": "function"
    }
  ],
  "bytecode": "0x608060405260016005553480156200001657600080fd5b506040516200335f3803806200335f83398181016040528101906200003c9190620002d9565b600160008190555033600760006101000a81548173ffffffffffffffffffffffffffffffffffffffff021916908373ffffffffffffffffffffffffffffffffffffffff16021790555081600960006101000a81548173ffffffffffffffffffffffffffffffffffffffff021916908373ffffffffffffffffffffffffffffffffffffffff16021790555080600a60006101000a81548173ffffffffffffffffffffffffffffffffffffffff021916908373ffffffffffffffffffffffffffffffffffffffff16021790555062000117620001aa60201b60201c565b73aa1dc356dc4b18f30c347798fd5379f3d77abc5b600b60006101000a81548173ffffffffffffffffffffffffffffffffffffffff021916908373ffffffffffffffffffffffffffffffffffffffff1602179055507f3237343031626264336338303462336139613533326534333962623130623866600d81905550670de0b6b3a7640000600c81905550505062000368565b6200025073c89bd4e1632d3a43cb03aaad5262cbe4038bc57173ffffffffffffffffffffffffffffffffffffffff166338cc48316040518163ffffffff1660e01b815260040160206040518083038186803b1580156200020957600080fd5b505afa1580156200021e573d6000803e3d6000fd5b505050506040513d601f19601f82011682018060405250810190620002449190620002ad565b6200025260201b60201c565b565b80600360006101000a81548173ffffffffffffffffffffffffffffffffffffffff021916908373ffffffffffffffffffffffffffffffffffffffff16021790555050565b600081519050620002a7816200034e565b92915050565b600060208284031215620002c057600080fd5b6000620002d08482850162000296565b91505092915050565b60008060408385031215620002ed57600080fd5b6000620002fd8582860162000296565b9250506020620003108582860162000296565b9150509250929050565b600062000327826200032e565b9050919050565b600073ffffffffffffffffffffffffffffffffffffffff82169050919050565b62000359816200031a565b81146200036557600080fd5b50565b612fe780620003786000396000f3fe608060405234801561001057600080fd5b50600436106101005760003560e01c80637dc0d1d011610097578063bf157be511610066578063bf157be51461029e578063c254de88146102bc578063e13a7716146102ec578063e1b93ab81461030a57610100565b80637dc0d1d0146101fd5780638ce1b5c61461021b5780639516a1041461024b578063a0844ffd1461026957610100565b80633c155431116100d35780633c155431146101795780634c69c00f146101a9578063570f7a99146101c55780635a70a436146101e157610100565b8063247eff5f146101055780632675fc27146101235780632b704099146101415780633a44bc3e1461015d575b600080fd5b61010d610326565b60405161011a9190612a07565b60405180910390f35b61012b6103c4565b60405161013891906129ec565b60405180910390f35b61015b6004803603810190610156919061206e565b6103ca565b005b610177600480360381019061017291906120e9565b6106ed565b005b610193600480360381019061018e91906120c0565b610c0e565b6040516101a0919061279b565b60405180910390f35b6101c360048036038101906101be919061206e565b610c41565b005b6101df60048036038101906101da9190612166565b610d15565b005b6101fb60048036038101906101f6919061206e565b610dca565b005b61020561101a565b604051610212919061279b565b60405180910390f35b61023560048036038101906102309190612166565b611040565b604051610242919061279b565b60405180910390f35b61025361107c565b60405161026091906129ca565b60405180910390f35b610283600480360381019061027e919061206e565b61110a565b604051610295969594939291906128fa565b60405180910390f35b6102a6611166565b6040516102b3919061279b565b60405180910390f35b6102d660048036038101906102d1919061206e565b61118c565b6040516102e39190612b69565b60405180910390f35b6102f461126d565b6040516103019190612b84565b60405180910390f35b610324600480360381019061031f919061206e565b611273565b005b600f8054600181600116156101000203166002900480601f0160208091040260200160405190810160405280929190818152602001828054600181600116156101000203166002900480156103bc5780601f10610391576101008083540402835291602001916103bc565b820191906000526020600020905b81548152906001019060200180831161039f57829003601f168201915b505050505081565b600e5481565b60026000541415610410576040517f08c379a000000000000000000000000000000000000000000000000000000000815260040161040790612b49565b60405180910390fd5b60026000819055506001601160008373ffffffffffffffffffffffffffffffffffffffff1673ffffffffffffffffffffffffffffffffffffffff16815260200190815260200160002060010154101561049e576040517f08c379a000000000000000000000000000000000000000000000000000000000815260040161049590612b29565b60405180910390fd5b60006104a98261147d565b905080601160008473ffffffffffffffffffffffffffffffffffffffff1673ffffffffffffffffffffffffffffffffffffffff168152602001908152602001600020600101819055507f4496c4597f63da1e94687c289afc9d9292643cfa9b877b18cf00546b10ab3fa0601160008473ffffffffffffffffffffffffffffffffffffffff1673ffffffffffffffffffffffffffffffffffffffff16815260200190815260200160002060000160009054906101000a900473ffffffffffffffffffffffffffffffffffffffff16601160008573ffffffffffffffffffffffffffffffffffffffff1673ffffffffffffffffffffffffffffffffffffffff16815260200190815260200160002060010154601160008673ffffffffffffffffffffffffffffffffffffffff1673ffffffffffffffffffffffffffffffffffffffff16815260200190815260200160002060020154601160008773ffffffffffffffffffffffffffffffffffffffff1673ffffffffffffffffffffffffffffffffffffffff16815260200190815260200160002060030154601160008873ffffffffffffffffffffffffffffffffffffffff1673ffffffffffffffffffffffffffffffffffffffff16815260200190815260200160002060040154601160008973ffffffffffffffffffffffffffffffffffffffff1673ffffffffffffffffffffffffffffffffffffffff16815260200190815260200160002060050154426040516106d9979695949392919061295b565b60405180910390a150600160008190555050565b8060108190555060006012600084815260200190815260200160002060009054906101000a900473ffffffffffffffffffffffffffffffffffffffff1690506000601160008373ffffffffffffffffffffffffffffffffffffffff1673ffffffffffffffffffffffffffffffffffffffff1681526020019081526020016000206005015490506000610815606473__$b417da84646892089ddb2453908ed8f0ce$__63e6aa743987601360186040518463ffffffff1660e01b81526004016107b793929190612bff565b60206040518083038186803b1580156107cf57600080fd5b505af41580156107e3573d6000803e3d6000fd5b505050506040513d601f19601f82011682018060405250810190610807919061218f565b61162490919063ffffffff16565b9050600061082c838361167a90919063ffffffff16565b9050600960009054906101000a900473ffffffffffffffffffffffffffffffffffffffff1673ffffffffffffffffffffffffffffffffffffffff16632a7cd7b982866040518363ffffffff1660e01b815260040161088b929190612b9f565b600060405180830381600087803b1580156108a557600080fd5b505af11580156108b9573d6000803e3d6000fd5b50505050610964670de0b6b3a764000073__$b417da84646892089ddb2453908ed8f0ce$__63e6aa743988600160066040518463ffffffff1660e01b815260040161090693929190612c36565b60206040518083038186803b15801561091e57600080fd5b505af4158015610932573d6000803e3d6000fd5b505050506040513d601f19601f82011682018060405250810190610956919061218f565b61162490919063ffffffff16565b601160008673ffffffffffffffffffffffffffffffffffffffff1673ffffffffffffffffffffffffffffffffffffffff16815260200190815260200160002060020181905550610a51670de0b6b3a764000073__$b417da84646892089ddb2453908ed8f0ce$__63e6aa7439886007600c6040518463ffffffff1660e01b81526004016109f393929190612c6d565b60206040518083038186803b158015610a0b57600080fd5b505af4158015610a1f573d6000803e3d6000fd5b505050506040513d601f19601f82011682018060405250810190610a43919061218f565b61162490919063ffffffff16565b601160008673ffffffffffffffffffffffffffffffffffffffff1673ffffffffffffffffffffffffffffffffffffffff16815260200190815260200160002060030181905550610b3e670de0b6b3a764000073__$b417da84646892089ddb2453908ed8f0ce$__63e6aa743988600d60126040518463ffffffff1660e01b8152600401610ae093929190612bc8565b60206040518083038186803b158015610af857600080fd5b505af4158015610b0c573d6000803e3d6000fd5b505050506040513d601f19601f82011682018060405250810190610b30919061218f565b61162490919063ffffffff16565b601160008673ffffffffffffffffffffffffffffffffffffffff1673ffffffffffffffffffffffffffffffffffffffff1681526020019081526020016000206004018190555081601160008673ffffffffffffffffffffffffffffffffffffffff1673ffffffffffffffffffffffffffffffffffffffff168152602001908152602001600020600501819055507fc58ddff2cd928258244ae6f415aa8f3569a8667ccc6a145688c82c1d3a4d4fa5848242604051610bfe939291906128b0565b60405180910390a1505050505050565b60126020528060005260406000206000915054906101000a900473ffffffffffffffffffffffffffffffffffffffff1681565b600760009054906101000a900473ffffffffffffffffffffffffffffffffffffffff1673ffffffffffffffffffffffffffffffffffffffff163373ffffffffffffffffffffffffffffffffffffffff1614610cd1576040517f08c379a0000000000000000000000000000000000000000000000000000000008152600401610cc890612ae9565b60405180910390fd5b80600b60006101000a81548173ffffffffffffffffffffffffffffffffffffffff021916908373ffffffffffffffffffffffffffffffffffffffff16021790555050565b600a60009054906101000a900473ffffffffffffffffffffffffffffffffffffffff1673ffffffffffffffffffffffffffffffffffffffff166323b872dd3330846040518463ffffffff1660e01b8152600401610d74939291906127b6565b602060405180830381600087803b158015610d8e57600080fd5b505af1158015610da2573d6000803e3d6000fd5b505050506040513d601f19601f82011682018060405250810190610dc69190612097565b5050565b60026000541415610e10576040517f08c379a0000000000000000000000000000000000000000000000000000000008152600401610e0790612b49565b60405180910390fd5b60026000819055506000601160008373ffffffffffffffffffffffffffffffffffffffff1673ffffffffffffffffffffffffffffffffffffffff1681526020019081526020016000206001015414610e9d576040517f08c379a0000000000000000000000000000000000000000000000000000000008152600401610e9490612a89565b60405180910390fd5b610ea5611ede565b6040518060c001604052808373ffffffffffffffffffffffffffffffffffffffff168152602001600181526020016000815260200160008152602001600081526020016000815250905080601160008473ffffffffffffffffffffffffffffffffffffffff1673ffffffffffffffffffffffffffffffffffffffff16815260200190815260200160002060008201518160000160006101000a81548173ffffffffffffffffffffffffffffffffffffffff021916908373ffffffffffffffffffffffffffffffffffffffff1602179055506020820151816001015560408201518160020155606082015181600301556080820151816004015560a082015181600501559050506008829080600181540180825580915050600190039060005260206000200160009091909190916101000a81548173ffffffffffffffffffffffffffffffffffffffff021916908373ffffffffffffffffffffffffffffffffffffffff16021790555050600160008190555050565b600b60009054906101000a900473ffffffffffffffffffffffffffffffffffffffff1681565b6008818154811061104d57fe5b906000526020600020016000915054906101000a900473ffffffffffffffffffffffffffffffffffffffff1681565b6060600880548060200260200160405190810160405280929190818152602001828054801561110057602002820191906000526020600020905b8160009054906101000a900473ffffffffffffffffffffffffffffffffffffffff1673ffffffffffffffffffffffffffffffffffffffff16815260200190600101908083116110b6575b5050505050905090565b60116020528060005260406000206000915090508060000160009054906101000a900473ffffffffffffffffffffffffffffffffffffffff16908060010154908060020154908060030154908060040154908060050154905086565b600760009054906101000a900473ffffffffffffffffffffffffffffffffffffffff1681565b611194611ede565b601160008373ffffffffffffffffffffffffffffffffffffffff1673ffffffffffffffffffffffffffffffffffffffff1681526020019081526020016000206040518060c00160405290816000820160009054906101000a900473ffffffffffffffffffffffffffffffffffffffff1673ffffffffffffffffffffffffffffffffffffffff1673ffffffffffffffffffffffffffffffffffffffff168152602001600182015481526020016002820154815260200160038201548152602001600482015481526020016005820154815250509050919050565b60105481565b6001601160008373ffffffffffffffffffffffffffffffffffffffff1673ffffffffffffffffffffffffffffffffffffffff1681526020019081526020016000206001015410156112f9576040517f08c379a00000000000000000000000000000000000000000000000000000000081526004016112f090612a29565b60405180910390fd5b611301611f2a565b611315600d5430633a44bc3e60e01b6116ca565b90506113ec6040518060400160405280600381526020017f646f67000000000000000000000000000000000000000000000000000000000081525073__$b417da84646892089ddb2453908ed8f0ce$__635e57966d856040518263ffffffff1660e01b81526004016113879190612780565b60006040518083038186803b15801561139f57600080fd5b505af41580156113b3573d6000803e3d6000fd5b505050506040513d6000823e3d601f19601f820116820180604052508101906113dc9190612125565b836116fb9092919063ffffffff16565b600061141d600b60009054906101000a900473ffffffffffffffffffffffffffffffffffffffff1683600c5461172e565b905080600e81905550826012600083815260200190815260200160002060006101000a81548173ffffffffffffffffffffffffffffffffffffffff021916908373ffffffffffffffffffffffffffffffffffffffff160217905550505050565b600080601160008473ffffffffffffffffffffffffffffffffffffffff1673ffffffffffffffffffffffffffffffffffffffff1681526020019081526020016000206003015490506000601160008573ffffffffffffffffffffffffffffffffffffffff1673ffffffffffffffffffffffffffffffffffffffff1681526020019081526020016000206002015490506000601160008673ffffffffffffffffffffffffffffffffffffffff1673ffffffffffffffffffffffffffffffffffffffff16815260200190815260200160002060040154905060006115b361156c600a846118f890919063ffffffff16565b6115a561158360028761162490919063ffffffff16565b6115976002896118f890919063ffffffff16565b61196890919063ffffffff16565b61196890919063ffffffff16565b90506201b5808111156115cd57600394505050505061161f565b617530811180156115e057506201b58081105b156115f257600294505050505061161f565b610bb881118015611604575061753081105b1561161657600194505050505061161f565b60009450505050505b919050565b6000808211611668576040517f08c379a000000000000000000000000000000000000000000000000000000000815260040161165f90612ac9565b60405180910390fd5b81838161167157fe5b04905092915050565b6000828211156116bf576040517f08c379a00000000000000000000000000000000000000000000000000000000081526004016116b690612aa9565b60405180910390fd5b818303905092915050565b6116d2611f2a565b6116da611f2a565b6116f1858585846119bd909392919063ffffffff16565b9150509392505050565b611712828460800151611a6d90919063ffffffff16565b611729818460800151611a6d90919063ffffffff16565b505050565b600030600554604051602001611745929190612754565b604051602081830303815290604052805190602001209050600554836060018181525050836006600083815260200190815260200160002060006101000a81548173ffffffffffffffffffffffffffffffffffffffff021916908373ffffffffffffffffffffffffffffffffffffffff160217905550807fb5e6e01e79f91267dc17b4e6314d5d4d03593d2ceee0fbb452b750bd70ea5af960405160405180910390a2600360009054906101000a900473ffffffffffffffffffffffffffffffffffffffff1673ffffffffffffffffffffffffffffffffffffffff16634000aea0858461183187611a92565b6040518463ffffffff1660e01b815260040161184f93929190612872565b602060405180830381600087803b15801561186957600080fd5b505af115801561187d573d6000803e3d6000fd5b505050506040513d601f19601f820116820180604052508101906118a19190612097565b6118e0576040517f08c379a00000000000000000000000000000000000000000000000000000000081526004016118d790612a69565b60405180910390fd5b60016005600082825401925050819055509392505050565b60008083141561190b5760009050611962565b600082840290508284828161191c57fe5b041461195d576040517f08c379a000000000000000000000000000000000000000000000000000000000815260040161195490612b09565b60405180910390fd5b809150505b92915050565b6000808284019050838110156119b3576040517f08c379a00000000000000000000000000000000000000000000000000000000081526004016119aa90612a49565b60405180910390fd5b8091505092915050565b6119c5611f2a565b6119d58560800151610100611b39565b508385600001818152505082856020019073ffffffffffffffffffffffffffffffffffffffff16908173ffffffffffffffffffffffffffffffffffffffff16815250508185604001907bffffffffffffffffffffffffffffffffffffffffffffffffffffffff191690817bffffffffffffffffffffffffffffffffffffffffffffffffffffffff191681525050849050949350505050565b611a7a8260038351611b8d565b611a8d8183611cd290919063ffffffff16565b505050565b6060634042994660e01b60008084600001518560200151866040015187606001516001896080015160000151604051602401611ad59897969594939291906127ed565b604051602081830303815290604052907bffffffffffffffffffffffffffffffffffffffffffffffffffffffff19166020820180517bffffffffffffffffffffffffffffffffffffffffffffffffffffffff83818316178352505050509050919050565b611b41611f97565b600060208381611b4d57fe5b0614611b665760208281611b5d57fe5b06602003820191505b81836020018181525050604051808452600081528281016020016040525082905092915050565b60178111611bba57611bb48160058460ff16901b60ff161784611cf490919063ffffffff16565b50611ccd565b60ff8111611bfc57611bdf601860058460ff16901b1784611cf490919063ffffffff16565b50611bf681600185611d149092919063ffffffff16565b50611ccc565b61ffff8111611c3f57611c22601960058460ff16901b1784611cf490919063ffffffff16565b50611c3981600285611d149092919063ffffffff16565b50611ccb565b63ffffffff8111611c8457611c67601a60058460ff16901b1784611cf490919063ffffffff16565b50611c7e81600485611d149092919063ffffffff16565b50611cca565b67ffffffffffffffff8111611cc957611cb0601b60058460ff16901b1784611cf490919063ffffffff16565b50611cc781600885611d149092919063ffffffff16565b505b5b5b5b5b505050565b611cda611f97565b611cec83846000015151848551611d36565b905092915050565b611cfc611f97565b611d0c8384600001515184611def565b905092915050565b611d1c611f97565b611d2d848560000151518585611e3d565b90509392505050565b611d3e611f97565b8251821115611d4c57600080fd5b84602001518285011115611d7757611d76856002611d708860200151888701611e9e565b02611eba565b5b600080865180518760208301019350808887011115611d965787860182525b60208701925050505b60208410611dc25780518252602082019150602081019050602084039350611d9f565b60006001856020036101000a03905080198251168184511681811785525050879350505050949350505050565b611df7611f97565b83602001518310611e1457611e13846002866020015102611eba565b5b8351805160208583010184815381861415611e30576001820183525b5050508390509392505050565b611e45611f97565b84602001518483011115611e6357611e6285600286850102611eba565b5b60006001836101000a0390508551838682010185831982511617815281518588011115611e905784870182525b505085915050949350505050565b600081831115611eb057829050611eb4565b8190505b92915050565b606082600001519050611ecd8383611b39565b50611ed88382611cd2565b50505050565b6040518060c00160405280600073ffffffffffffffffffffffffffffffffffffffff16815260200160008152602001600081526020016000815260200160008152602001600081525090565b6040518060a0016040528060008019168152602001600073ffffffffffffffffffffffffffffffffffffffff16815260200160007bffffffffffffffffffffffffffffffffffffffffffffffffffffffff1916815260200160008152602001611f91611f97565b81525090565b604051806040016040528060608152602001600081525090565b600081359050611fc081612f55565b92915050565b600081519050611fd581612f6c565b92915050565b600081359050611fea81612f83565b92915050565b600082601f83011261200157600080fd5b815161201461200f82612cd1565b612ca4565b9150808252602083016020830185838301111561203057600080fd5b61203b838284612ed6565b50505092915050565b60008135905061205381612f9a565b92915050565b60008151905061206881612f9a565b92915050565b60006020828403121561208057600080fd5b600061208e84828501611fb1565b91505092915050565b6000602082840312156120a957600080fd5b60006120b784828501611fc6565b91505092915050565b6000602082840312156120d257600080fd5b60006120e084828501611fdb565b91505092915050565b600080604083850312156120fc57600080fd5b600061210a85828601611fdb565b925050602061211b85828601612044565b9150509250929050565b60006020828403121561213757600080fd5b600082015167ffffffffffffffff81111561215157600080fd5b61215d84828501611ff0565b91505092915050565b60006020828403121561217857600080fd5b600061218684828501612044565b91505092915050565b6000602082840312156121a157600080fd5b60006121af84828501612059565b91505092915050565b60006121c483836121df565b60208301905092915050565b6121d981612dec565b82525050565b6121e881612d6e565b82525050565b6121f781612d6e565b82525050565b61220681612d6e565b82525050565b600061221782612d0d565b6122218185612d3b565b935061222c83612cfd565b8060005b8381101561225d57815161224488826121b8565b975061224f83612d2e565b925050600181019050612230565b5085935050505092915050565b61227381612d8c565b82525050565b61228281612d96565b82525050565b600061229382612d18565b61229d8185612d4c565b93506122ad818560208601612ed6565b6122b681612f37565b840191505092915050565b6122d26122cd82612dfe565b612f09565b82525050565b6122e181612e22565b82525050565b6122f081612e34565b82525050565b6122ff81612e46565b82525050565b61230e81612e58565b82525050565b61231d81612e6a565b82525050565b61232c81612e7c565b82525050565b61233b81612e8e565b82525050565b61234a81612ea0565b82525050565b600061235b82612d23565b6123658185612d5d565b9350612375818560208601612ed6565b61237e81612f37565b840191505092915050565b6000612396601a83612d5d565b91507f626164676520686173206e6f74206265656e20637265617465640000000000006000830152602082019050919050565b60006123d6601b83612d5d565b91507f536166654d6174683a206164646974696f6e206f766572666c6f7700000000006000830152602082019050919050565b6000612416602383612d5d565b91507f756e61626c6520746f207472616e73666572416e6443616c6c20746f206f726160008301527f636c6500000000000000000000000000000000000000000000000000000000006020830152604082019050919050565b600061247c601f83612d5d565b91507f6261646765742068617320616c7265616479206265656e2063726561746564006000830152602082019050919050565b60006124bc601e83612d5d565b91507f536166654d6174683a207375627472616374696f6e206f766572666c6f7700006000830152602082019050919050565b60006124fc601a83612d5d565b91507f536166654d6174683a206469766973696f6e206279207a65726f0000000000006000830152602082019050919050565b600061253c601e83612d5d565b91507f6f6e6c79207368656c7465722063616e206368616e6765206f7261636c6500006000830152602082019050919050565b600061257c602183612d5d565b91507f536166654d6174683a206d756c7469706c69636174696f6e206f766572666c6f60008301527f77000000000000000000000000000000000000000000000000000000000000006020830152604082019050919050565b60006125e2601b83612d5d565b91507f62616467657420686173206e6f74206265656e206372656174656400000000006000830152602082019050919050565b6000612622600883612d5d565b91507f57616c6b205061790000000000000000000000000000000000000000000000006000830152602082019050919050565b6000612662601f83612d5d565b91507f5265656e7472616e637947756172643a207265656e7472616e742063616c6c006000830152602082019050919050565b60c0820160008201516126ab60008501826121df565b5060208201516126be6020850182612710565b5060408201516126d16040850182612710565b5060608201516126e46060850182612710565b5060808201516126f76080850182612710565b5060a082015161270a60a0850182612710565b50505050565b61271981612de2565b82525050565b61272881612de2565b82525050565b61273781612de2565b82525050565b61274e61274982612de2565b612f2d565b82525050565b600061276082856122c1565b601482019150612770828461273d565b6020820191508190509392505050565b600060208201905061279560008301846121fd565b92915050565b60006020820190506127b060008301846121ee565b92915050565b60006060820190506127cb60008301866121d0565b6127d860208301856121ee565b6127e5604083018461271f565b949350505050565b600061010082019050612803600083018b6121ee565b612810602083018a61271f565b61281d604083018961226a565b61282a60608301886121ee565b6128376080830187612279565b61284460a083018661271f565b61285160c083018561271f565b81810360e08301526128638184612288565b90509998505050505050505050565b600060608201905061288760008301866121ee565b612894602083018561271f565b81810360408301526128a68184612288565b9050949350505050565b60006080820190506128c560008301866121ee565b6128d2602083018561271f565b81810360408301526128e381612615565b90506128f2606083018461271f565b949350505050565b600060c08201905061290f60008301896121ee565b61291c602083018861271f565b612929604083018761271f565b612936606083018661271f565b612943608083018561271f565b61295060a083018461271f565b979650505050505050565b600060e082019050612970600083018a6121ee565b61297d602083018961271f565b61298a604083018861271f565b612997606083018761271f565b6129a4608083018661271f565b6129b160a083018561271f565b6129be60c083018461271f565b98975050505050505050565b600060208201905081810360008301526129e4818461220c565b905092915050565b6000602082019050612a01600083018461226a565b92915050565b60006020820190508181036000830152612a218184612350565b905092915050565b60006020820190508181036000830152612a4281612389565b9050919050565b60006020820190508181036000830152612a62816123c9565b9050919050565b60006020820190508181036000830152612a8281612409565b9050919050565b60006020820190508181036000830152612aa28161246f565b9050919050565b60006020820190508181036000830152612ac2816124af565b9050919050565b60006020820190508181036000830152612ae2816124ef565b9050919050565b60006020820190508181036000830152612b028161252f565b9050919050565b60006020820190508181036000830152612b228161256f565b9050919050565b60006020820190508181036000830152612b42816125d5565b9050919050565b60006020820190508181036000830152612b6281612655565b9050919050565b600060c082019050612b7e6000830184612695565b92915050565b6000602082019050612b99600083018461271f565b92915050565b6000604082019050612bb4600083018561271f565b612bc160208301846121ee565b9392505050565b6000606082019050612bdd600083018661272e565b612bea60208301856122e7565b612bf760408301846122f6565b949350505050565b6000606082019050612c14600083018661272e565b612c216020830185612305565b612c2e6040830184612323565b949350505050565b6000606082019050612c4b600083018661272e565b612c586020830185612314565b612c656040830184612332565b949350505050565b6000606082019050612c82600083018661272e565b612c8f6020830185612341565b612c9c60408301846122d8565b949350505050565b6000604051905081810181811067ffffffffffffffff82111715612cc757600080fd5b8060405250919050565b600067ffffffffffffffff821115612ce857600080fd5b601f19601f8301169050602081019050919050565b6000819050602082019050919050565b600081519050919050565b600081519050919050565b600081519050919050565b6000602082019050919050565b600082825260208201905092915050565b600082825260208201905092915050565b600082825260208201905092915050565b6000612d7982612dc2565b9050919050565b60008115159050919050565b6000819050919050565b60007fffffffff0000000000000000000000000000000000000000000000000000000082169050919050565b600073ffffffffffffffffffffffffffffffffffffffff82169050919050565b6000819050919050565b6000612df782612eb2565b9050919050565b6000612e0982612e10565b9050919050565b6000612e1b82612dc2565b9050919050565b6000612e2d82612de2565b9050919050565b6000612e3f82612de2565b9050919050565b6000612e5182612de2565b9050919050565b6000612e6382612de2565b9050919050565b6000612e7582612de2565b9050919050565b6000612e8782612de2565b9050919050565b6000612e9982612de2565b9050919050565b6000612eab82612de2565b9050919050565b6000612ebd82612ec4565b9050919050565b6000612ecf82612dc2565b9050919050565b60005b83811015612ef4578082015181840152602081019050612ed9565b83811115612f03576000848401525b50505050565b6000612f1482612f1b565b9050919050565b6000612f2682612f48565b9050919050565b6000819050919050565b6000601f19601f8301169050919050565b60008160601b9050919050565b612f5e81612d6e565b8114612f6957600080fd5b50565b612f7581612d80565b8114612f8057600080fd5b50565b612f8c81612d8c565b8114612f9757600080fd5b50565b612fa381612de2565b8114612fae57600080fd5b5056fea2646970667358221220e4aad764297c66fd6447cc4c16d35fc830ed0e2e42c54f2e05dbc5d38750ef7d64736f6c634300060c0033",
  "linkReferences": {
    "contracts/typesLibrary.sol": {
      "typesLibrary": [
        {
          "length": 20,
          "start": 2804
        },
        {
          "length": 20,
          "start": 3139
        },
        {
          "length": 20,
          "start": 3376
        },
        {
          "length": 20,
          "start": 3613
        },
        {
          "length": 20,
          "start": 5834
        }
      ]
    }
  },
  "deployedLinkReferences": {
    "contracts/typesLibrary.sol": {
      "typesLibrary": [
        {
          "length": 20,
          "start": 1916
        },
        {
          "length": 20,
          "start": 2251
        },
        {
          "length": 20,
          "start": 2488
        },
        {
          "length": 20,
          "start": 2725
        },
        {
          "length": 20,
          "start": 4946
        }
      ]
    }
  }
}