{
  "_format": "hh-sol-artifact-1",
  "contractName": "WalkBadgeOracle",
  "sourceName": "contracts/WalkBadgeOracle.sol",
  "abi": [
    {
      "inputs": [
        {
          "internalType": "address",
          "name": "_WT",
          "type": "address"
        },
        {
          "internalType": "address",
          "name": "_link",
          "type": "address"
        }
      ],
      "stateMutability": "nonpayable",
      "type": "constructor"
    },
    {
      "anonymous": false,
      "inputs": [
        {
          "indexed": true,
          "internalType": "bytes32",
          "name": "id",
          "type": "bytes32"
        }
      ],
      "name": "ChainlinkCancelled",
      "type": "event"
    },
    {
      "anonymous": false,
      "inputs": [
        {
          "indexed": true,
          "internalType": "bytes32",
          "name": "id",
          "type": "bytes32"
        }
      ],
      "name": "ChainlinkFulfilled",
      "type": "event"
    },
    {
      "anonymous": false,
      "inputs": [
        {
          "indexed": true,
          "internalType": "bytes32",
          "name": "id",
          "type": "bytes32"
        }
      ],
      "name": "ChainlinkRequested",
      "type": "event"
    },
    {
      "anonymous": false,
      "inputs": [
        {
          "indexed": false,
          "internalType": "address",
          "name": "payee",
          "type": "address"
        },
        {
          "indexed": false,
          "internalType": "uint256",
          "name": "amount",
          "type": "uint256"
        },
        {
          "indexed": false,
          "internalType": "string",
          "name": "action",
          "type": "string"
        },
        {
          "indexed": false,
          "internalType": "uint256",
          "name": "time",
          "type": "uint256"
        }
      ],
      "name": "paidTo",
      "type": "event"
    },
    {
      "anonymous": false,
      "inputs": [
        {
          "indexed": false,
          "internalType": "address",
          "name": "walker",
          "type": "address"
        },
        {
          "indexed": false,
          "internalType": "uint256",
          "name": "level",
          "type": "uint256"
        },
        {
          "indexed": false,
          "internalType": "uint256",
          "name": "timeWalked",
          "type": "uint256"
        },
        {
          "indexed": false,
          "internalType": "uint256",
          "name": "distanceWalked",
          "type": "uint256"
        },
        {
          "indexed": false,
          "internalType": "uint256",
          "name": "dogsWalked",
          "type": "uint256"
        },
        {
          "indexed": false,
          "internalType": "uint256",
          "name": "dateUpdated",
          "type": "uint256"
        },
        {
          "indexed": false,
          "internalType": "uint256",
          "name": "payUpdated",
          "type": "uint256"
        }
      ],
      "name": "updatedBadge",
      "type": "event"
    },
    {
      "inputs": [
        {
          "internalType": "address",
          "name": "",
          "type": "address"
        }
      ],
      "name": "AddresstoBadge",
      "outputs": [
        {
          "internalType": "address",
          "name": "walker",
          "type": "address"
        },
        {
          "internalType": "uint256",
          "name": "level",
          "type": "uint256"
        },
        {
          "internalType": "uint256",
          "name": "timeWalked",
          "type": "uint256"
        },
        {
          "internalType": "uint256",
          "name": "distanceWalked",
          "type": "uint256"
        },
        {
          "internalType": "uint256",
          "name": "dogsWalked",
          "type": "uint256"
        },
        {
          "internalType": "uint256",
          "name": "totalPaid",
          "type": "uint256"
        }
      ],
      "stateMutability": "view",
      "type": "function"
    },
    {
      "inputs": [
        {
          "internalType": "uint256",
          "name": "",
          "type": "uint256"
        }
      ],
      "name": "assignedAddresses",
      "outputs": [
        {
          "internalType": "address",
          "name": "",
          "type": "address"
        }
      ],
      "stateMutability": "view",
      "type": "function"
    },
    {
      "inputs": [
        {
          "internalType": "address",
          "name": "_walker",
          "type": "address"
        }
      ],
      "name": "createBadge",
      "outputs": [],
      "stateMutability": "nonpayable",
      "type": "function"
    },
    {
      "inputs": [
        {
          "internalType": "bytes32",
          "name": "_requestId",
          "type": "bytes32"
        },
        {
          "internalType": "uint256",
          "name": "results",
          "type": "uint256"
        }
      ],
      "name": "fulfillStats",
      "outputs": [],
      "stateMutability": "nonpayable",
      "type": "function"
    },
    {
      "inputs": [],
      "name": "getAllAddresses",
      "outputs": [
        {
          "internalType": "address[]",
          "name": "addresses",
          "type": "address[]"
        }
      ],
      "stateMutability": "view",
      "type": "function"
    },
    {
      "inputs": [
        {
          "internalType": "address",
          "name": "_walker",
          "type": "address"
        }
      ],
      "name": "getBadge",
      "outputs": [
        {
          "components": [
            {
              "internalType": "address",
              "name": "walker",
              "type": "address"
            },
            {
              "internalType": "uint256",
              "name": "level",
              "type": "uint256"
            },
            {
              "internalType": "uint256",
              "name": "timeWalked",
              "type": "uint256"
            },
            {
              "internalType": "uint256",
              "name": "distanceWalked",
              "type": "uint256"
            },
            {
              "internalType": "uint256",
              "name": "dogsWalked",
              "type": "uint256"
            },
            {
              "internalType": "uint256",
              "name": "totalPaid",
              "type": "uint256"
            }
          ],
          "internalType": "struct WalkBadgeOracle.WalkerLevel",
          "name": "_badge",
          "type": "tuple"
        }
      ],
      "stateMutability": "view",
      "type": "function"
    },
    {
      "inputs": [],
      "name": "oracle",
      "outputs": [
        {
          "internalType": "address",
          "name": "",
          "type": "address"
        }
      ],
      "stateMutability": "view",
      "type": "function"
    },
    {
      "inputs": [
        {
          "internalType": "uint256",
          "name": "_value",
          "type": "uint256"
        }
      ],
      "name": "recieveLink",
      "outputs": [],
      "stateMutability": "nonpayable",
      "type": "function"
    },
    {
      "inputs": [],
      "name": "reqIDtest",
      "outputs": [
        {
          "internalType": "bytes32",
          "name": "",
          "type": "bytes32"
        }
      ],
      "stateMutability": "view",
      "type": "function"
    },
    {
      "inputs": [
        {
          "internalType": "bytes32",
          "name": "",
          "type": "bytes32"
        }
      ],
      "name": "reqId_Address",
      "outputs": [
        {
          "internalType": "address",
          "name": "",
          "type": "address"
        }
      ],
      "stateMutability": "view",
      "type": "function"
    },
    {
      "inputs": [
        {
          "internalType": "address",
          "name": "_oracle",
          "type": "address"
        }
      ],
      "name": "setOracleAddress",
      "outputs": [],
      "stateMutability": "nonpayable",
      "type": "function"
    },
    {
      "inputs": [],
      "name": "shelter",
      "outputs": [
        {
          "internalType": "address",
          "name": "",
          "type": "address"
        }
      ],
      "stateMutability": "view",
      "type": "function"
    },
    {
      "inputs": [
        {
          "internalType": "address",
          "name": "_walker",
          "type": "address"
        }
      ],
      "name": "updateBadge",
      "outputs": [],
      "stateMutability": "nonpayable",
      "type": "function"
    },
    {
      "inputs": [
        {
          "internalType": "address",
          "name": "_walker",
          "type": "address"
        }
      ],
      "name": "updateWalkerStats",
      "outputs": [],
      "stateMutability": "nonpayable",
      "type": "function"
    }
  ],
  "bytecode": "0x608060405260016005553480156200001657600080fd5b5060405162002c2338038062002c2383398181016040528101906200003c9190620002d9565b600160008190555033600760006101000a81548173ffffffffffffffffffffffffffffffffffffffff021916908373ffffffffffffffffffffffffffffffffffffffff16021790555081600960006101000a81548173ffffffffffffffffffffffffffffffffffffffff021916908373ffffffffffffffffffffffffffffffffffffffff16021790555080600a60006101000a81548173ffffffffffffffffffffffffffffffffffffffff021916908373ffffffffffffffffffffffffffffffffffffffff16021790555062000117620001aa60201b60201c565b73f5a4036ca35b9c017efa49932dca4bc8cc781aa4600b60006101000a81548173ffffffffffffffffffffffffffffffffffffffff021916908373ffffffffffffffffffffffffffffffffffffffff1602179055507f3932386666643631326564343432313439623034366435663830376339313436600d81905550670de0b6b3a7640000600c81905550505062000368565b6200025073c89bd4e1632d3a43cb03aaad5262cbe4038bc57173ffffffffffffffffffffffffffffffffffffffff166338cc48316040518163ffffffff1660e01b815260040160206040518083038186803b1580156200020957600080fd5b505afa1580156200021e573d6000803e3d6000fd5b505050506040513d601f19601f82011682018060405250810190620002449190620002ad565b6200025260201b60201c565b565b80600360006101000a81548173ffffffffffffffffffffffffffffffffffffffff021916908373ffffffffffffffffffffffffffffffffffffffff16021790555050565b600081519050620002a7816200034e565b92915050565b600060208284031215620002c057600080fd5b6000620002d08482850162000296565b91505092915050565b60008060408385031215620002ed57600080fd5b6000620002fd8582860162000296565b9250506020620003108582860162000296565b9150509250929050565b600062000327826200032e565b9050919050565b600073ffffffffffffffffffffffffffffffffffffffff82169050919050565b62000359816200031a565b81146200036557600080fd5b50565b6128ab80620003786000396000f3fe608060405234801561001057600080fd5b50600436106100ea5760003560e01c80637dc0d1d01161008c578063a0844ffd11610066578063a0844ffd14610235578063bf157be51461026a578063c254de8814610288578063e1b93ab8146102b8576100ea565b80637dc0d1d0146101c95780638ce1b5c6146101e75780639516a10414610217576100ea565b80633c155431116100c85780633c155431146101455780634c69c00f14610175578063570f7a99146101915780635a70a436146101ad576100ea565b8063130be7c5146100ef5780632675fc271461010b5780633a44bc3e14610129575b600080fd5b61010960048036038101906101049190611bbe565b6102d4565b005b6101136105f7565b6040516101209190612465565b60405180910390f35b610143600480360381019061013e9190611c39565b6105fd565b005b61015f600480360381019061015a9190611c10565b61075a565b60405161016c91906121ca565b60405180910390f35b61018f600480360381019061018a9190611bbe565b61078d565b005b6101ab60048036038101906101a69190611cb6565b610861565b005b6101c760048036038101906101c29190611bbe565b610916565b005b6101d1610b66565b6040516101de91906121ca565b60405180910390f35b61020160048036038101906101fc9190611cb6565b610b8c565b60405161020e91906121ca565b60405180910390f35b61021f610bc8565b60405161022c9190612443565b60405180910390f35b61024f600480360381019061024a9190611bbe565b610c56565b60405161026196959493929190612373565b60405180910390f35b610272610cb2565b60405161027f91906121ca565b60405180910390f35b6102a2600480360381019061029d9190611bbe565b610cd8565b6040516102af91906125a2565b60405180910390f35b6102d260048036038101906102cd9190611bbe565b610db9565b005b6002600054141561031a576040517f08c379a000000000000000000000000000000000000000000000000000000000815260040161031190612582565b60405180910390fd5b60026000819055506001600f60008373ffffffffffffffffffffffffffffffffffffffff1673ffffffffffffffffffffffffffffffffffffffff1681526020019081526020016000206001015410156103a8576040517f08c379a000000000000000000000000000000000000000000000000000000000815260040161039f90612562565b60405180910390fd5b60006103b382611006565b905080600f60008473ffffffffffffffffffffffffffffffffffffffff1673ffffffffffffffffffffffffffffffffffffffff168152602001908152602001600020600101819055507f4496c4597f63da1e94687c289afc9d9292643cfa9b877b18cf00546b10ab3fa0600f60008473ffffffffffffffffffffffffffffffffffffffff1673ffffffffffffffffffffffffffffffffffffffff16815260200190815260200160002060000160009054906101000a900473ffffffffffffffffffffffffffffffffffffffff16600f60008573ffffffffffffffffffffffffffffffffffffffff1673ffffffffffffffffffffffffffffffffffffffff16815260200190815260200160002060010154600f60008673ffffffffffffffffffffffffffffffffffffffff1673ffffffffffffffffffffffffffffffffffffffff16815260200190815260200160002060020154600f60008773ffffffffffffffffffffffffffffffffffffffff1673ffffffffffffffffffffffffffffffffffffffff16815260200190815260200160002060030154600f60008873ffffffffffffffffffffffffffffffffffffffff1673ffffffffffffffffffffffffffffffffffffffff16815260200190815260200160002060040154600f60008973ffffffffffffffffffffffffffffffffffffffff1673ffffffffffffffffffffffffffffffffffffffff16815260200190815260200160002060050154426040516105e397969594939291906123d4565b60405180910390a150600160008190555050565b600e5481565b60006010600084815260200190815260200160002060009054906101000a900473ffffffffffffffffffffffffffffffffffffffff1690506000600f60008373ffffffffffffffffffffffffffffffffffffffff1673ffffffffffffffffffffffffffffffffffffffff1681526020019081526020016000206005015490506000678ac7230489e800009050600960009054906101000a900473ffffffffffffffffffffffffffffffffffffffff1673ffffffffffffffffffffffffffffffffffffffff16632a7cd7b982856040518363ffffffff1660e01b81526004016106e69291906125bd565b600060405180830381600087803b15801561070057600080fd5b505af1158015610714573d6000803e3d6000fd5b505050507fc58ddff2cd928258244ae6f415aa8f3569a8667ccc6a145688c82c1d3a4d4fa533824260405161074b93929190612266565b60405180910390a15050505050565b60106020528060005260406000206000915054906101000a900473ffffffffffffffffffffffffffffffffffffffff1681565b600760009054906101000a900473ffffffffffffffffffffffffffffffffffffffff1673ffffffffffffffffffffffffffffffffffffffff163373ffffffffffffffffffffffffffffffffffffffff161461081d576040517f08c379a000000000000000000000000000000000000000000000000000000000815260040161081490612522565b60405180910390fd5b80600b60006101000a81548173ffffffffffffffffffffffffffffffffffffffff021916908373ffffffffffffffffffffffffffffffffffffffff16021790555050565b600a60009054906101000a900473ffffffffffffffffffffffffffffffffffffffff1673ffffffffffffffffffffffffffffffffffffffff166323b872dd3330846040518463ffffffff1660e01b81526004016108c0939291906121e5565b602060405180830381600087803b1580156108da57600080fd5b505af11580156108ee573d6000803e3d6000fd5b505050506040513d601f19601f820116820180604052508101906109129190611be7565b5050565b6002600054141561095c576040517f08c379a000000000000000000000000000000000000000000000000000000000815260040161095390612582565b60405180910390fd5b60026000819055506000600f60008373ffffffffffffffffffffffffffffffffffffffff1673ffffffffffffffffffffffffffffffffffffffff16815260200190815260200160002060010154146109e9576040517f08c379a00000000000000000000000000000000000000000000000000000000081526004016109e090612502565b60405180910390fd5b6109f1611a43565b6040518060c001604052808373ffffffffffffffffffffffffffffffffffffffff168152602001600181526020016000815260200160008152602001600081526020016000815250905080600f60008473ffffffffffffffffffffffffffffffffffffffff1673ffffffffffffffffffffffffffffffffffffffff16815260200190815260200160002060008201518160000160006101000a81548173ffffffffffffffffffffffffffffffffffffffff021916908373ffffffffffffffffffffffffffffffffffffffff1602179055506020820151816001015560408201518160020155606082015181600301556080820151816004015560a082015181600501559050506008829080600181540180825580915050600190039060005260206000200160009091909190916101000a81548173ffffffffffffffffffffffffffffffffffffffff021916908373ffffffffffffffffffffffffffffffffffffffff16021790555050600160008190555050565b600b60009054906101000a900473ffffffffffffffffffffffffffffffffffffffff1681565b60088181548110610b9957fe5b906000526020600020016000915054906101000a900473ffffffffffffffffffffffffffffffffffffffff1681565b60606008805480602002602001604051908101604052809291908181526020018280548015610c4c57602002820191906000526020600020905b8160009054906101000a900473ffffffffffffffffffffffffffffffffffffffff1673ffffffffffffffffffffffffffffffffffffffff1681526020019060010190808311610c02575b5050505050905090565b600f6020528060005260406000206000915090508060000160009054906101000a900473ffffffffffffffffffffffffffffffffffffffff16908060010154908060020154908060030154908060040154908060050154905086565b600760009054906101000a900473ffffffffffffffffffffffffffffffffffffffff1681565b610ce0611a43565b600f60008373ffffffffffffffffffffffffffffffffffffffff1673ffffffffffffffffffffffffffffffffffffffff1681526020019081526020016000206040518060c00160405290816000820160009054906101000a900473ffffffffffffffffffffffffffffffffffffffff1673ffffffffffffffffffffffffffffffffffffffff1673ffffffffffffffffffffffffffffffffffffffff168152602001600182015481526020016002820154815260200160038201548152602001600482015481526020016005820154815250509050919050565b7fc58ddff2cd928258244ae6f415aa8f3569a8667ccc6a145688c82c1d3a4d4fa533671bc16d674ec8000042604051610df49392919061221c565b60405180910390a16001600f60008373ffffffffffffffffffffffffffffffffffffffff1673ffffffffffffffffffffffffffffffffffffffff168152602001908152602001600020600101541015610e82576040517f08c379a0000000000000000000000000000000000000000000000000000000008152600401610e79906124a2565b60405180910390fd5b610e8a611a8f565b610e9e600d5430633a44bc3e60e01b611184565b9050610f756040518060400160405280600781526020017f616464726573730000000000000000000000000000000000000000000000000081525073__$b417da84646892089ddb2453908ed8f0ce$__635e57966d856040518263ffffffff1660e01b8152600401610f1091906121af565b60006040518083038186803b158015610f2857600080fd5b505af4158015610f3c573d6000803e3d6000fd5b505050506040513d6000823e3d601f19601f82011682018060405250810190610f659190611c75565b836111b59092919063ffffffff16565b6000610fa6600b60009054906101000a900473ffffffffffffffffffffffffffffffffffffffff1683600c546111e8565b905080600e81905550826010600083815260200190815260200160002060006101000a81548173ffffffffffffffffffffffffffffffffffffffff021916908373ffffffffffffffffffffffffffffffffffffffff160217905550505050565b600080600f60008473ffffffffffffffffffffffffffffffffffffffff1673ffffffffffffffffffffffffffffffffffffffff1681526020019081526020016000206003015490506000600f60008573ffffffffffffffffffffffffffffffffffffffff1673ffffffffffffffffffffffffffffffffffffffff1681526020019081526020016000206002015490506000600f60008673ffffffffffffffffffffffffffffffffffffffff1673ffffffffffffffffffffffffffffffffffffffff168152602001908152602001600020600401549050600061113c6110f5600a846113b290919063ffffffff16565b61112e61110c60028761142290919063ffffffff16565b6111206002896113b290919063ffffffff16565b61146c90919063ffffffff16565b61146c90919063ffffffff16565b9050605081111561115457600294505050505061117f565b601e811180156111645750605081105b1561117657600194505050505061117f565b60009450505050505b919050565b61118c611a8f565b611194611a8f565b6111ab858585846114c1909392919063ffffffff16565b9150509392505050565b6111cc82846080015161157190919063ffffffff16565b6111e381846080015161157190919063ffffffff16565b505050565b6000306005546040516020016111ff929190612183565b604051602081830303815290604052805190602001209050600554836060018181525050836006600083815260200190815260200160002060006101000a81548173ffffffffffffffffffffffffffffffffffffffff021916908373ffffffffffffffffffffffffffffffffffffffff160217905550807fb5e6e01e79f91267dc17b4e6314d5d4d03593d2ceee0fbb452b750bd70ea5af960405160405180910390a2600360009054906101000a900473ffffffffffffffffffffffffffffffffffffffff1673ffffffffffffffffffffffffffffffffffffffff16634000aea085846112eb87611596565b6040518463ffffffff1660e01b815260040161130993929190612335565b602060405180830381600087803b15801561132357600080fd5b505af1158015611337573d6000803e3d6000fd5b505050506040513d601f19601f8201168201806040525081019061135b9190611be7565b61139a576040517f08c379a0000000000000000000000000000000000000000000000000000000008152600401611391906124e2565b60405180910390fd5b60016005600082825401925050819055509392505050565b6000808314156113c5576000905061141c565b60008284029050828482816113d657fe5b0414611417576040517f08c379a000000000000000000000000000000000000000000000000000000000815260040161140e90612542565b60405180910390fd5b809150505b92915050565b600061146483836040518060400160405280601a81526020017f536166654d6174683a206469766973696f6e206279207a65726f00000000000081525061163d565b905092915050565b6000808284019050838110156114b7576040517f08c379a00000000000000000000000000000000000000000000000000000000081526004016114ae906124c2565b60405180910390fd5b8091505092915050565b6114c9611a8f565b6114d9856080015161010061169e565b508385600001818152505082856020019073ffffffffffffffffffffffffffffffffffffffff16908173ffffffffffffffffffffffffffffffffffffffff16815250508185604001907bffffffffffffffffffffffffffffffffffffffffffffffffffffffff191690817bffffffffffffffffffffffffffffffffffffffffffffffffffffffff191681525050849050949350505050565b61157e82600383516116f2565b611591818361183790919063ffffffff16565b505050565b6060634042994660e01b600080846000015185602001518660400151876060015160018960800151600001516040516024016115d99897969594939291906122b0565b604051602081830303815290604052907bffffffffffffffffffffffffffffffffffffffffffffffffffffffff19166020820180517bffffffffffffffffffffffffffffffffffffffffffffffffffffffff83818316178352505050509050919050565b60008083118290611684576040517f08c379a000000000000000000000000000000000000000000000000000000000815260040161167b9190612480565b60405180910390fd5b50600083858161169057fe5b049050809150509392505050565b6116a6611afc565b6000602083816116b257fe5b06146116cb57602082816116c257fe5b06602003820191505b81836020018181525050604051808452600081528281016020016040525082905092915050565b6017811161171f576117198160058460ff16901b60ff16178461185990919063ffffffff16565b50611832565b60ff811161176157611744601860058460ff16901b178461185990919063ffffffff16565b5061175b816001856118799092919063ffffffff16565b50611831565b61ffff81116117a457611787601960058460ff16901b178461185990919063ffffffff16565b5061179e816002856118799092919063ffffffff16565b50611830565b63ffffffff81116117e9576117cc601a60058460ff16901b178461185990919063ffffffff16565b506117e3816004856118799092919063ffffffff16565b5061182f565b67ffffffffffffffff811161182e57611815601b60058460ff16901b178461185990919063ffffffff16565b5061182c816008856118799092919063ffffffff16565b505b5b5b5b5b505050565b61183f611afc565b6118518384600001515184855161189b565b905092915050565b611861611afc565b6118718384600001515184611954565b905092915050565b611881611afc565b6118928485600001515185856119a2565b90509392505050565b6118a3611afc565b82518211156118b157600080fd5b846020015182850111156118dc576118db8560026118d58860200151888701611a03565b02611a1f565b5b6000808651805187602083010193508088870111156118fb5787860182525b60208701925050505b602084106119275780518252602082019150602081019050602084039350611904565b60006001856020036101000a03905080198251168184511681811785525050879350505050949350505050565b61195c611afc565b8360200151831061197957611978846002866020015102611a1f565b5b8351805160208583010184815381861415611995576001820183525b5050508390509392505050565b6119aa611afc565b846020015184830111156119c8576119c785600286850102611a1f565b5b60006001836101000a03905085518386820101858319825116178152815185880111156119f55784870182525b505085915050949350505050565b600081831115611a1557829050611a19565b8190505b92915050565b606082600001519050611a32838361169e565b50611a3d8382611837565b50505050565b6040518060c00160405280600073ffffffffffffffffffffffffffffffffffffffff16815260200160008152602001600081526020016000815260200160008152602001600081525090565b6040518060a0016040528060008019168152602001600073ffffffffffffffffffffffffffffffffffffffff16815260200160007bffffffffffffffffffffffffffffffffffffffffffffffffffffffff1916815260200160008152602001611af6611afc565b81525090565b604051806040016040528060608152602001600081525090565b600081359050611b2581612819565b92915050565b600081519050611b3a81612830565b92915050565b600081359050611b4f81612847565b92915050565b600082601f830112611b6657600080fd5b8151611b79611b7482612613565b6125e6565b91508082526020830160208301858383011115611b9557600080fd5b611ba083828461279a565b50505092915050565b600081359050611bb88161285e565b92915050565b600060208284031215611bd057600080fd5b6000611bde84828501611b16565b91505092915050565b600060208284031215611bf957600080fd5b6000611c0784828501611b2b565b91505092915050565b600060208284031215611c2257600080fd5b6000611c3084828501611b40565b91505092915050565b60008060408385031215611c4c57600080fd5b6000611c5a85828601611b40565b9250506020611c6b85828601611ba9565b9150509250929050565b600060208284031215611c8757600080fd5b600082015167ffffffffffffffff811115611ca157600080fd5b611cad84828501611b55565b91505092915050565b600060208284031215611cc857600080fd5b6000611cd684828501611ba9565b91505092915050565b6000611ceb8383611d06565b60208301905092915050565b611d008161272e565b82525050565b611d0f816126b0565b82525050565b611d1e816126b0565b82525050565b611d2d816126b0565b82525050565b6000611d3e8261264f565b611d48818561267d565b9350611d538361263f565b8060005b83811015611d84578151611d6b8882611cdf565b9750611d7683612670565b925050600181019050611d57565b5085935050505092915050565b611d9a816126ce565b82525050565b611da9816126d8565b82525050565b6000611dba8261265a565b611dc4818561268e565b9350611dd481856020860161279a565b611ddd816127fb565b840191505092915050565b611df9611df482612740565b6127cd565b82525050565b611e0881612764565b82525050565b6000611e1982612665565b611e23818561269f565b9350611e3381856020860161279a565b611e3c816127fb565b840191505092915050565b6000611e54601a8361269f565b91507f626164676520686173206e6f74206265656e20637265617465640000000000006000830152602082019050919050565b6000611e94601b8361269f565b91507f536166654d6174683a206164646974696f6e206f766572666c6f7700000000006000830152602082019050919050565b6000611ed460238361269f565b91507f756e61626c6520746f207472616e73666572416e6443616c6c20746f206f726160008301527f636c6500000000000000000000000000000000000000000000000000000000006020830152604082019050919050565b6000611f3a601f8361269f565b91507f6261646765742068617320616c7265616479206265656e2063726561746564006000830152602082019050919050565b6000611f7a601e8361269f565b91507f6f6e6c79207368656c7465722063616e206368616e6765206f7261636c6500006000830152602082019050919050565b6000611fba60218361269f565b91507f536166654d6174683a206d756c7469706c69636174696f6e206f766572666c6f60008301527f77000000000000000000000000000000000000000000000000000000000000006020830152604082019050919050565b6000612020601b8361269f565b91507f62616467657420686173206e6f74206265656e206372656174656400000000006000830152602082019050919050565b600061206060088361269f565b91507f57616c6b205061790000000000000000000000000000000000000000000000006000830152602082019050919050565b60006120a0601f8361269f565b91507f5265656e7472616e637947756172643a207265656e7472616e742063616c6c006000830152602082019050919050565b60c0820160008201516120e96000850182611d06565b5060208201516120fc602085018261214e565b50604082015161210f604085018261214e565b506060820151612122606085018261214e565b506080820151612135608085018261214e565b5060a082015161214860a085018261214e565b50505050565b61215781612724565b82525050565b61216681612724565b82525050565b61217d61217882612724565b6127f1565b82525050565b600061218f8285611de8565b60148201915061219f828461216c565b6020820191508190509392505050565b60006020820190506121c46000830184611d24565b92915050565b60006020820190506121df6000830184611d15565b92915050565b60006060820190506121fa6000830186611cf7565b6122076020830185611d15565b612214604083018461215d565b949350505050565b60006080820190506122316000830186611cf7565b61223e6020830185611dff565b818103604083015261224f81612053565b905061225e606083018461215d565b949350505050565b600060808201905061227b6000830186611cf7565b612288602083018561215d565b818103604083015261229981612053565b90506122a8606083018461215d565b949350505050565b6000610100820190506122c6600083018b611d15565b6122d3602083018a61215d565b6122e06040830189611d91565b6122ed6060830188611d15565b6122fa6080830187611da0565b61230760a083018661215d565b61231460c083018561215d565b81810360e08301526123268184611daf565b90509998505050505050505050565b600060608201905061234a6000830186611d15565b612357602083018561215d565b81810360408301526123698184611daf565b9050949350505050565b600060c0820190506123886000830189611d15565b612395602083018861215d565b6123a2604083018761215d565b6123af606083018661215d565b6123bc608083018561215d565b6123c960a083018461215d565b979650505050505050565b600060e0820190506123e9600083018a611d15565b6123f6602083018961215d565b612403604083018861215d565b612410606083018761215d565b61241d608083018661215d565b61242a60a083018561215d565b61243760c083018461215d565b98975050505050505050565b6000602082019050818103600083015261245d8184611d33565b905092915050565b600060208201905061247a6000830184611d91565b92915050565b6000602082019050818103600083015261249a8184611e0e565b905092915050565b600060208201905081810360008301526124bb81611e47565b9050919050565b600060208201905081810360008301526124db81611e87565b9050919050565b600060208201905081810360008301526124fb81611ec7565b9050919050565b6000602082019050818103600083015261251b81611f2d565b9050919050565b6000602082019050818103600083015261253b81611f6d565b9050919050565b6000602082019050818103600083015261255b81611fad565b9050919050565b6000602082019050818103600083015261257b81612013565b9050919050565b6000602082019050818103600083015261259b81612093565b9050919050565b600060c0820190506125b760008301846120d3565b92915050565b60006040820190506125d2600083018561215d565b6125df6020830184611d15565b9392505050565b6000604051905081810181811067ffffffffffffffff8211171561260957600080fd5b8060405250919050565b600067ffffffffffffffff82111561262a57600080fd5b601f19601f8301169050602081019050919050565b6000819050602082019050919050565b600081519050919050565b600081519050919050565b600081519050919050565b6000602082019050919050565b600082825260208201905092915050565b600082825260208201905092915050565b600082825260208201905092915050565b60006126bb82612704565b9050919050565b60008115159050919050565b6000819050919050565b60007fffffffff0000000000000000000000000000000000000000000000000000000082169050919050565b600073ffffffffffffffffffffffffffffffffffffffff82169050919050565b6000819050919050565b600061273982612776565b9050919050565b600061274b82612752565b9050919050565b600061275d82612704565b9050919050565b600061276f82612724565b9050919050565b600061278182612788565b9050919050565b600061279382612704565b9050919050565b60005b838110156127b857808201518184015260208101905061279d565b838111156127c7576000848401525b50505050565b60006127d8826127df565b9050919050565b60006127ea8261280c565b9050919050565b6000819050919050565b6000601f19601f8301169050919050565b60008160601b9050919050565b612822816126b0565b811461282d57600080fd5b50565b612839816126c2565b811461284457600080fd5b50565b612850816126ce565b811461285b57600080fd5b50565b61286781612724565b811461287257600080fd5b5056fea264697066735822122066f65c14890e207046cd106a73a19ae91c920c18765384f227cb26113059dfd564736f6c634300060c0033",
  "linkReferences": {
    "contracts/typesLibrary.sol": {
      "typesLibrary": [
        {
          "length": 20,
          "start": 4691
        }
      ]
    }
  },
  "deployedLinkReferences": {
    "contracts/typesLibrary.sol": {
      "typesLibrary": [
        {
          "length": 20,
          "start": 3803
        }
      ]
    }
  }
}