{
  "_format": "hh-sol-artifact-1",
  "contractName": "WalkTokenExchange",
  "sourceName": "contracts/Exchange.sol",
  "abi": [
    {
      "inputs": [
        {
          "internalType": "address",
          "name": "_WT",
          "type": "address"
        },
        {
          "internalType": "address",
          "name": "_Dai",
          "type": "address"
        },
        {
          "internalType": "address",
          "name": "_ILP",
          "type": "address"
        }
      ],
      "stateMutability": "nonpayable",
      "type": "constructor"
    },
    {
      "anonymous": false,
      "inputs": [
        {
          "indexed": false,
          "internalType": "address",
          "name": "spender",
          "type": "address"
        },
        {
          "indexed": false,
          "internalType": "uint256",
          "name": "amount",
          "type": "uint256"
        },
        {
          "indexed": false,
          "internalType": "string",
          "name": "action",
          "type": "string"
        }
      ],
      "name": "boughtToy",
      "type": "event"
    },
    {
      "anonymous": false,
      "inputs": [
        {
          "indexed": false,
          "internalType": "address",
          "name": "spender",
          "type": "address"
        },
        {
          "indexed": false,
          "internalType": "uint256",
          "name": "amount",
          "type": "uint256"
        },
        {
          "indexed": false,
          "internalType": "string",
          "name": "action",
          "type": "string"
        }
      ],
      "name": "redeemedDai",
      "type": "event"
    },
    {
      "stateMutability": "payable",
      "type": "fallback"
    },
    {
      "inputs": [
        {
          "internalType": "uint256",
          "name": "_value",
          "type": "uint256"
        }
      ],
      "name": "depositAAVE",
      "outputs": [],
      "stateMutability": "nonpayable",
      "type": "function"
    },
    {
      "inputs": [
        {
          "internalType": "uint256",
          "name": "_value",
          "type": "uint256"
        }
      ],
      "name": "recieveDai",
      "outputs": [],
      "stateMutability": "nonpayable",
      "type": "function"
    },
    {
      "inputs": [
        {
          "internalType": "uint256",
          "name": "_value",
          "type": "uint256"
        }
      ],
      "name": "recieveWT",
      "outputs": [],
      "stateMutability": "nonpayable",
      "type": "function"
    },
    {
      "inputs": [
        {
          "internalType": "uint256",
          "name": "_DaitoRedeem",
          "type": "uint256"
        }
      ],
      "name": "redeemWTforDai",
      "outputs": [],
      "stateMutability": "nonpayable",
      "type": "function"
    },
    {
      "inputs": [
        {
          "internalType": "uint256",
          "name": "_value",
          "type": "uint256"
        }
      ],
      "name": "withdrawDai",
      "outputs": [],
      "stateMutability": "nonpayable",
      "type": "function"
    },
    {
      "inputs": [
        {
          "internalType": "address payable",
          "name": "_to",
          "type": "address"
        }
      ],
      "name": "withdrawETH",
      "outputs": [],
      "stateMutability": "payable",
      "type": "function"
    },
    {
      "stateMutability": "payable",
      "type": "receive"
    }
  ],
  "bytecode": "0x60806040523480156200001157600080fd5b50604051620014f3380380620014f3833981810160405281019062000037919062000163565b600160008190555033600160006101000a81548173ffffffffffffffffffffffffffffffffffffffff021916908373ffffffffffffffffffffffffffffffffffffffff16021790555081600260006101000a81548173ffffffffffffffffffffffffffffffffffffffff021916908373ffffffffffffffffffffffffffffffffffffffff16021790555082600360006101000a81548173ffffffffffffffffffffffffffffffffffffffff021916908373ffffffffffffffffffffffffffffffffffffffff16021790555080600460006101000a81548173ffffffffffffffffffffffffffffffffffffffff021916908373ffffffffffffffffffffffffffffffffffffffff16021790555050505062000207565b6000815190506200015d81620001ed565b92915050565b6000806000606084860312156200017957600080fd5b600062000189868287016200014c565b93505060206200019c868287016200014c565b9250506040620001af868287016200014c565b9150509250925092565b6000620001c682620001cd565b9050919050565b600073ffffffffffffffffffffffffffffffffffffffff82169050919050565b620001f881620001b9565b81146200020457600080fd5b50565b6112dc80620002176000396000f3fe6080604052600436106100595760003560e01c80634535626814610062578063690d83201461008b5780636a26c3fb146100a757806370410616146100d057806393a991af146100f9578063a06c48831461012257610060565b3661006057005b005b34801561006e57600080fd5b5061008960048036038101906100849190610c64565b61014b565b005b6100a560048036038101906100a09190610c12565b610200565b005b3480156100b357600080fd5b506100ce60048036038101906100c99190610c64565b61030d565b005b3480156100dc57600080fd5b506100f760048036038101906100f29190610c64565b610521565b005b34801561010557600080fd5b50610120600480360381019061011b9190610c64565b610666565b005b34801561012e57600080fd5b5061014960048036038101906101449190610c64565b61085b565b005b600360009054906101000a900473ffffffffffffffffffffffffffffffffffffffff1673ffffffffffffffffffffffffffffffffffffffff166323b872dd3330846040518463ffffffff1660e01b81526004016101aa93929190610f7f565b602060405180830381600087803b1580156101c457600080fd5b505af11580156101d8573d6000803e3d6000fd5b505050506040513d601f19601f820116820180604052508101906101fc9190610c3b565b5050565b600160009054906101000a900473ffffffffffffffffffffffffffffffffffffffff1673ffffffffffffffffffffffffffffffffffffffff163373ffffffffffffffffffffffffffffffffffffffff1614610290576040517f08c379a000000000000000000000000000000000000000000000000000000000815260040161028790611140565b60405180910390fd5b60008173ffffffffffffffffffffffffffffffffffffffff166108fc349081150290604051600060405180830381858888f19350505050905080610309576040517f08c379a0000000000000000000000000000000000000000000000000000000008152600401610300906110e0565b60405180910390fd5b5050565b6000600360009054906101000a900473ffffffffffffffffffffffffffffffffffffffff1673ffffffffffffffffffffffffffffffffffffffff166370a08231336040518263ffffffff1660e01b815260040161036a9190610f64565b60206040518083038186803b15801561038257600080fd5b505afa158015610396573d6000803e3d6000fd5b505050506040513d601f19601f820116820180604052508101906103ba9190610c8d565b905060006103d2606484610a7690919063ffffffff16565b905080821015610417576040517f08c379a000000000000000000000000000000000000000000000000000000000815260040161040e90611180565b60405180910390fd5b6104208161014b565b6000600260009054906101000a900473ffffffffffffffffffffffffffffffffffffffff1673ffffffffffffffffffffffffffffffffffffffff166370a08231306040518263ffffffff1660e01b815260040161047d9190610f64565b60206040518083038186803b15801561049557600080fd5b505afa1580156104a9573d6000803e3d6000fd5b505050506040513d601f19601f820116820180604052508101906104cd9190610c8d565b9050838110156104e2576104e18433610ae6565b5b7f90cd998de64ca26252209b1df9ed2e7fcaf6e5d3a1a49ce8498d6d97db37e3b73383604051610513929190610fdf565b60405180910390a150505050565b600160009054906101000a900473ffffffffffffffffffffffffffffffffffffffff1673ffffffffffffffffffffffffffffffffffffffff163373ffffffffffffffffffffffffffffffffffffffff16146105b1576040517f08c379a00000000000000000000000000000000000000000000000000000000081526004016105a890611160565b60405180910390fd5b600260009054906101000a900473ffffffffffffffffffffffffffffffffffffffff1673ffffffffffffffffffffffffffffffffffffffff166323b872dd3330846040518463ffffffff1660e01b815260040161061093929190610f7f565b602060405180830381600087803b15801561062a57600080fd5b505af115801561063e573d6000803e3d6000fd5b505050506040513d601f19601f820116820180604052508101906106629190610c3b565b5050565b600160009054906101000a900473ffffffffffffffffffffffffffffffffffffffff1673ffffffffffffffffffffffffffffffffffffffff163373ffffffffffffffffffffffffffffffffffffffff16146106f6576040517f08c379a00000000000000000000000000000000000000000000000000000000081526004016106ed90611120565b60405180910390fd5b600260009054906101000a900473ffffffffffffffffffffffffffffffffffffffff1673ffffffffffffffffffffffffffffffffffffffff1663095ea7b333836040518363ffffffff1660e01b8152600401610753929190610fb6565b602060405180830381600087803b15801561076d57600080fd5b505af1158015610781573d6000803e3d6000fd5b505050506040513d601f19601f820116820180604052508101906107a59190610c3b565b50600260009054906101000a900473ffffffffffffffffffffffffffffffffffffffff1673ffffffffffffffffffffffffffffffffffffffff166323b872dd3033846040518463ffffffff1660e01b815260040161080593929190610f7f565b602060405180830381600087803b15801561081f57600080fd5b505af1158015610833573d6000803e3d6000fd5b505050506040513d601f19601f820116820180604052508101906108579190610c3b565b5050565b600160009054906101000a900473ffffffffffffffffffffffffffffffffffffffff1673ffffffffffffffffffffffffffffffffffffffff163373ffffffffffffffffffffffffffffffffffffffff16146108eb576040517f08c379a00000000000000000000000000000000000000000000000000000000081526004016108e2906110c0565b60405180910390fd5b600260009054906101000a900473ffffffffffffffffffffffffffffffffffffffff1673ffffffffffffffffffffffffffffffffffffffff1663095ea7b3600460009054906101000a900473ffffffffffffffffffffffffffffffffffffffff16836040518363ffffffff1660e01b815260040161096a92919061101b565b602060405180830381600087803b15801561098457600080fd5b505af1158015610998573d6000803e3d6000fd5b505050506040513d601f19601f820116820180604052508101906109bc9190610c3b565b50600460009054906101000a900473ffffffffffffffffffffffffffffffffffffffff1673ffffffffffffffffffffffffffffffffffffffff1663e8eda9df600260009054906101000a900473ffffffffffffffffffffffffffffffffffffffff16833060006040518563ffffffff1660e01b8152600401610a41949392919061107b565b600060405180830381600087803b158015610a5b57600080fd5b505af1158015610a6f573d6000803e3d6000fd5b5050505050565b600080831415610a895760009050610ae0565b6000828402905082848281610a9a57fe5b0414610adb576040517f08c379a0000000000000000000000000000000000000000000000000000000008152600401610ad290611100565b60405180910390fd5b809150505b92915050565b600460009054906101000a900473ffffffffffffffffffffffffffffffffffffffff1673ffffffffffffffffffffffffffffffffffffffff166369328dec600260009054906101000a900473ffffffffffffffffffffffffffffffffffffffff1684846040518463ffffffff1660e01b8152600401610b6793929190611044565b602060405180830381600087803b158015610b8157600080fd5b505af1158015610b95573d6000803e3d6000fd5b505050506040513d601f19601f82011682018060405250810190610bb99190610c8d565b505050565b600081359050610bcd81611261565b92915050565b600081519050610be281611278565b92915050565b600081359050610bf78161128f565b92915050565b600081519050610c0c8161128f565b92915050565b600060208284031215610c2457600080fd5b6000610c3284828501610bbe565b91505092915050565b600060208284031215610c4d57600080fd5b6000610c5b84828501610bd3565b91505092915050565b600060208284031215610c7657600080fd5b6000610c8484828501610be8565b91505092915050565b600060208284031215610c9f57600080fd5b6000610cad84828501610bfd565b91505092915050565b610cbf81611219565b82525050565b610cce816111b1565b82525050565b610cdd8161122b565b82525050565b6000610cf0600c836111a0565b91507f52656465656d65642044616900000000000000000000000000000000000000006000830152602082019050919050565b6000610d306026836111a0565b91507f6f6e6c79207368656c7465722063616e2061646a75737420414156452066756e60008301527f6374696f6e7300000000000000000000000000000000000000000000000000006020830152604082019050919050565b6000610d966014836111a0565b91507f4661696c656420746f2073656e642045746865720000000000000000000000006000830152602082019050919050565b6000610dd66021836111a0565b91507f536166654d6174683a206d756c7469706c69636174696f6e206f766572666c6f60008301527f77000000000000000000000000000000000000000000000000000000000000006020830152604082019050919050565b6000610e3c601d836111a0565b91507f6f6e6c79207368656c7465722063616e207769746864726177204461690000006000830152602082019050919050565b6000610e7c601d836111a0565b91507f6f6e6c79207368656c7465722063616e207769746864726177204554480000006000830152602082019050919050565b6000610ebc601c836111a0565b91507f6f6e6c79207368656c7465722063616e206465706f73697420446169000000006000830152602082019050919050565b6000610efc603e836111a0565b91507f496e73756666696369656e742077616c6b546f6b656e7320746f20726564656560008301527f6d20776974682e203130302057542061726520776f72746820312044616900006020830152604082019050919050565b610f5e8161120f565b82525050565b6000602082019050610f796000830184610cb6565b92915050565b6000606082019050610f946000830186610cb6565b610fa16020830185610cb6565b610fae6040830184610f55565b949350505050565b6000604082019050610fcb6000830185610cb6565b610fd86020830184610f55565b9392505050565b6000606082019050610ff46000830185610cb6565b6110016020830184610f55565b818103604083015261101281610ce3565b90509392505050565b60006040820190506110306000830185610cc5565b61103d6020830184610f55565b9392505050565b60006060820190506110596000830186610cc5565b6110666020830185610f55565b6110736040830184610cc5565b949350505050565b60006080820190506110906000830187610cc5565b61109d6020830186610f55565b6110aa6040830185610cb6565b6110b76060830184610cd4565b95945050505050565b600060208201905081810360008301526110d981610d23565b9050919050565b600060208201905081810360008301526110f981610d89565b9050919050565b6000602082019050818103600083015261111981610dc9565b9050919050565b6000602082019050818103600083015261113981610e2f565b9050919050565b6000602082019050818103600083015261115981610e6f565b9050919050565b6000602082019050818103600083015261117981610eaf565b9050919050565b6000602082019050818103600083015261119981610eef565b9050919050565b600082825260208201905092915050565b60006111bc826111ef565b9050919050565b60006111ce826111ef565b9050919050565b60008115159050919050565b600061ffff82169050919050565b600073ffffffffffffffffffffffffffffffffffffffff82169050919050565b6000819050919050565b60006112248261123d565b9050919050565b6000611236826111e1565b9050919050565b60006112488261124f565b9050919050565b600061125a826111ef565b9050919050565b61126a816111c3565b811461127557600080fd5b50565b611281816111d5565b811461128c57600080fd5b50565b6112988161120f565b81146112a357600080fd5b5056fea26469706673582212209fa4103335c108ca3d5951184733482e4be7e66a49785d9d6789c0579621a71a64736f6c634300060c0033",
  "linkReferences": {},
  "deployedLinkReferences": {}
}