{
  "_format": "hh-sol-artifact-1",
  "contractName": "WalkBadgeOracle",
  "sourceName": "contracts/WalkBadgeOracle.sol",
  "abi": [
    {
      "inputs": [
        {
          "internalType": "address",
          "name": "_WT",
          "type": "address"
        },
        {
          "internalType": "address",
          "name": "_link",
          "type": "address"
        }
      ],
      "stateMutability": "nonpayable",
      "type": "constructor"
    },
    {
      "anonymous": false,
      "inputs": [
        {
          "indexed": true,
          "internalType": "bytes32",
          "name": "id",
          "type": "bytes32"
        }
      ],
      "name": "ChainlinkCancelled",
      "type": "event"
    },
    {
      "anonymous": false,
      "inputs": [
        {
          "indexed": true,
          "internalType": "bytes32",
          "name": "id",
          "type": "bytes32"
        }
      ],
      "name": "ChainlinkFulfilled",
      "type": "event"
    },
    {
      "anonymous": false,
      "inputs": [
        {
          "indexed": true,
          "internalType": "bytes32",
          "name": "id",
          "type": "bytes32"
        }
      ],
      "name": "ChainlinkRequested",
      "type": "event"
    },
    {
      "anonymous": false,
      "inputs": [
        {
          "indexed": false,
          "internalType": "address",
          "name": "payee",
          "type": "address"
        },
        {
          "indexed": false,
          "internalType": "uint256",
          "name": "amount",
          "type": "uint256"
        },
        {
          "indexed": false,
          "internalType": "string",
          "name": "action",
          "type": "string"
        },
        {
          "indexed": false,
          "internalType": "uint256",
          "name": "time",
          "type": "uint256"
        }
      ],
      "name": "paidTo",
      "type": "event"
    },
    {
      "anonymous": false,
      "inputs": [
        {
          "indexed": false,
          "internalType": "address",
          "name": "walker",
          "type": "address"
        },
        {
          "indexed": false,
          "internalType": "uint256",
          "name": "level",
          "type": "uint256"
        },
        {
          "indexed": false,
          "internalType": "uint256",
          "name": "timeWalked",
          "type": "uint256"
        },
        {
          "indexed": false,
          "internalType": "uint256",
          "name": "distanceWalked",
          "type": "uint256"
        },
        {
          "indexed": false,
          "internalType": "uint256",
          "name": "dogsWalked",
          "type": "uint256"
        },
        {
          "indexed": false,
          "internalType": "uint256",
          "name": "dateUpdated",
          "type": "uint256"
        },
        {
          "indexed": false,
          "internalType": "uint256",
          "name": "payUpdated",
          "type": "uint256"
        }
      ],
      "name": "updatedBadge",
      "type": "event"
    },
    {
      "inputs": [
        {
          "internalType": "address",
          "name": "",
          "type": "address"
        }
      ],
      "name": "AddresstoBadge",
      "outputs": [
        {
          "internalType": "address",
          "name": "walker",
          "type": "address"
        },
        {
          "internalType": "uint256",
          "name": "level",
          "type": "uint256"
        },
        {
          "internalType": "uint256",
          "name": "timeWalked",
          "type": "uint256"
        },
        {
          "internalType": "uint256",
          "name": "distanceWalked",
          "type": "uint256"
        },
        {
          "internalType": "uint256",
          "name": "dogsWalked",
          "type": "uint256"
        },
        {
          "internalType": "uint256",
          "name": "totalPaid",
          "type": "uint256"
        }
      ],
      "stateMutability": "view",
      "type": "function"
    },
    {
      "inputs": [
        {
          "internalType": "uint256",
          "name": "",
          "type": "uint256"
        }
      ],
      "name": "assignedAddresses",
      "outputs": [
        {
          "internalType": "address",
          "name": "",
          "type": "address"
        }
      ],
      "stateMutability": "view",
      "type": "function"
    },
    {
      "inputs": [
        {
          "internalType": "address",
          "name": "_walker",
          "type": "address"
        }
      ],
      "name": "createBadge",
      "outputs": [],
      "stateMutability": "nonpayable",
      "type": "function"
    },
    {
      "inputs": [],
      "name": "encoded",
      "outputs": [
        {
          "internalType": "string",
          "name": "",
          "type": "string"
        }
      ],
      "stateMutability": "view",
      "type": "function"
    },
    {
      "inputs": [
        {
          "internalType": "bytes32",
          "name": "_requestId",
          "type": "bytes32"
        },
        {
          "internalType": "uint256",
          "name": "results",
          "type": "uint256"
        }
      ],
      "name": "fulfillStats",
      "outputs": [],
      "stateMutability": "nonpayable",
      "type": "function"
    },
    {
      "inputs": [],
      "name": "getAllAddresses",
      "outputs": [
        {
          "internalType": "address[]",
          "name": "addresses",
          "type": "address[]"
        }
      ],
      "stateMutability": "view",
      "type": "function"
    },
    {
      "inputs": [
        {
          "internalType": "address",
          "name": "_walker",
          "type": "address"
        }
      ],
      "name": "getBadge",
      "outputs": [
        {
          "components": [
            {
              "internalType": "address",
              "name": "walker",
              "type": "address"
            },
            {
              "internalType": "uint256",
              "name": "level",
              "type": "uint256"
            },
            {
              "internalType": "uint256",
              "name": "timeWalked",
              "type": "uint256"
            },
            {
              "internalType": "uint256",
              "name": "distanceWalked",
              "type": "uint256"
            },
            {
              "internalType": "uint256",
              "name": "dogsWalked",
              "type": "uint256"
            },
            {
              "internalType": "uint256",
              "name": "totalPaid",
              "type": "uint256"
            }
          ],
          "internalType": "struct WalkBadgeOracle.WalkerLevel",
          "name": "_badge",
          "type": "tuple"
        }
      ],
      "stateMutability": "view",
      "type": "function"
    },
    {
      "inputs": [],
      "name": "oracle",
      "outputs": [
        {
          "internalType": "address",
          "name": "",
          "type": "address"
        }
      ],
      "stateMutability": "view",
      "type": "function"
    },
    {
      "inputs": [
        {
          "internalType": "uint256",
          "name": "_value",
          "type": "uint256"
        }
      ],
      "name": "recieveLink",
      "outputs": [],
      "stateMutability": "nonpayable",
      "type": "function"
    },
    {
      "inputs": [],
      "name": "reqIDtest",
      "outputs": [
        {
          "internalType": "bytes32",
          "name": "",
          "type": "bytes32"
        }
      ],
      "stateMutability": "view",
      "type": "function"
    },
    {
      "inputs": [
        {
          "internalType": "bytes32",
          "name": "",
          "type": "bytes32"
        }
      ],
      "name": "reqId_Address",
      "outputs": [
        {
          "internalType": "address",
          "name": "",
          "type": "address"
        }
      ],
      "stateMutability": "view",
      "type": "function"
    },
    {
      "inputs": [
        {
          "internalType": "address",
          "name": "_oracle",
          "type": "address"
        }
      ],
      "name": "setOracleAddress",
      "outputs": [],
      "stateMutability": "nonpayable",
      "type": "function"
    },
    {
      "inputs": [],
      "name": "shelter",
      "outputs": [
        {
          "internalType": "address",
          "name": "",
          "type": "address"
        }
      ],
      "stateMutability": "view",
      "type": "function"
    },
    {
      "inputs": [],
      "name": "testReturn",
      "outputs": [
        {
          "internalType": "uint256",
          "name": "",
          "type": "uint256"
        }
      ],
      "stateMutability": "view",
      "type": "function"
    },
    {
      "inputs": [
        {
          "internalType": "address",
          "name": "_walker",
          "type": "address"
        }
      ],
      "name": "updateBadgeLevel",
      "outputs": [],
      "stateMutability": "nonpayable",
      "type": "function"
    },
    {
      "inputs": [
        {
          "internalType": "address",
          "name": "_walker",
          "type": "address"
        }
      ],
      "name": "updateWalkerStats",
      "outputs": [],
      "stateMutability": "nonpayable",
      "type": "function"
    }
  ],
  "bytecode": "0x608060405260016005553480156200001657600080fd5b50604051620033203803806200332083398181016040528101906200003c9190620002d9565b600160008190555033600760006101000a81548173ffffffffffffffffffffffffffffffffffffffff021916908373ffffffffffffffffffffffffffffffffffffffff16021790555081600960006101000a81548173ffffffffffffffffffffffffffffffffffffffff021916908373ffffffffffffffffffffffffffffffffffffffff16021790555080600a60006101000a81548173ffffffffffffffffffffffffffffffffffffffff021916908373ffffffffffffffffffffffffffffffffffffffff16021790555062000117620001aa60201b60201c565b73f5a4036ca35b9c017efa49932dca4bc8cc781aa4600b60006101000a81548173ffffffffffffffffffffffffffffffffffffffff021916908373ffffffffffffffffffffffffffffffffffffffff1602179055507f3338623863363766666133653465336362393438376236313662386434333231600d81905550670de0b6b3a7640000600c81905550505062000368565b6200025073c89bd4e1632d3a43cb03aaad5262cbe4038bc57173ffffffffffffffffffffffffffffffffffffffff166338cc48316040518163ffffffff1660e01b815260040160206040518083038186803b1580156200020957600080fd5b505afa1580156200021e573d6000803e3d6000fd5b505050506040513d601f19601f82011682018060405250810190620002449190620002ad565b6200025260201b60201c565b565b80600360006101000a81548173ffffffffffffffffffffffffffffffffffffffff021916908373ffffffffffffffffffffffffffffffffffffffff16021790555050565b600081519050620002a7816200034e565b92915050565b600060208284031215620002c057600080fd5b6000620002d08482850162000296565b91505092915050565b60008060408385031215620002ed57600080fd5b6000620002fd8582860162000296565b9250506020620003108582860162000296565b9150509250929050565b600062000327826200032e565b9050919050565b600073ffffffffffffffffffffffffffffffffffffffff82169050919050565b62000359816200031a565b81146200036557600080fd5b50565b612fa880620003786000396000f3fe608060405234801561001057600080fd5b50600436106101005760003560e01c80637dc0d1d011610097578063bf157be511610066578063bf157be51461029e578063c254de88146102bc578063e13a7716146102ec578063e1b93ab81461030a57610100565b80637dc0d1d0146101fd5780638ce1b5c61461021b5780639516a1041461024b578063a0844ffd1461026957610100565b80633c155431116100d35780633c155431146101795780634c69c00f146101a9578063570f7a99146101c55780635a70a436146101e157610100565b8063247eff5f146101055780632675fc27146101235780632b704099146101415780633a44bc3e1461015d575b600080fd5b61010d610326565b60405161011a9190612a08565b60405180910390f35b61012b6103c4565b60405161013891906129ed565b60405180910390f35b61015b600480360381019061015691906120ef565b6103ca565b005b6101776004803603810190610172919061216a565b6106ed565b005b610193600480360381019061018e9190612141565b610c0e565b6040516101a0919061279c565b60405180910390f35b6101c360048036038101906101be91906120ef565b610c41565b005b6101df60048036038101906101da91906121e7565b610d15565b005b6101fb60048036038101906101f691906120ef565b610dca565b005b61020561101a565b604051610212919061279c565b60405180910390f35b610235600480360381019061023091906121e7565b611040565b604051610242919061279c565b60405180910390f35b61025361107c565b60405161026091906129cb565b60405180910390f35b610283600480360381019061027e91906120ef565b61110a565b604051610295969594939291906128fb565b60405180910390f35b6102a6611166565b6040516102b3919061279c565b60405180910390f35b6102d660048036038101906102d191906120ef565b61118c565b6040516102e39190612b2a565b60405180910390f35b6102f461126d565b6040516103019190612b45565b60405180910390f35b610324600480360381019061031f91906120ef565b611273565b005b600f8054600181600116156101000203166002900480601f0160208091040260200160405190810160405280929190818152602001828054600181600116156101000203166002900480156103bc5780601f10610391576101008083540402835291602001916103bc565b820191906000526020600020905b81548152906001019060200180831161039f57829003601f168201915b505050505081565b600e5481565b60026000541415610410576040517f08c379a000000000000000000000000000000000000000000000000000000000815260040161040790612b0a565b60405180910390fd5b60026000819055506001601160008373ffffffffffffffffffffffffffffffffffffffff1673ffffffffffffffffffffffffffffffffffffffff16815260200190815260200160002060010154101561049e576040517f08c379a000000000000000000000000000000000000000000000000000000000815260040161049590612aea565b60405180910390fd5b60006104a98261147d565b905080601160008473ffffffffffffffffffffffffffffffffffffffff1673ffffffffffffffffffffffffffffffffffffffff168152602001908152602001600020600101819055507f4496c4597f63da1e94687c289afc9d9292643cfa9b877b18cf00546b10ab3fa0601160008473ffffffffffffffffffffffffffffffffffffffff1673ffffffffffffffffffffffffffffffffffffffff16815260200190815260200160002060000160009054906101000a900473ffffffffffffffffffffffffffffffffffffffff16601160008573ffffffffffffffffffffffffffffffffffffffff1673ffffffffffffffffffffffffffffffffffffffff16815260200190815260200160002060010154601160008673ffffffffffffffffffffffffffffffffffffffff1673ffffffffffffffffffffffffffffffffffffffff16815260200190815260200160002060020154601160008773ffffffffffffffffffffffffffffffffffffffff1673ffffffffffffffffffffffffffffffffffffffff16815260200190815260200160002060030154601160008873ffffffffffffffffffffffffffffffffffffffff1673ffffffffffffffffffffffffffffffffffffffff16815260200190815260200160002060040154601160008973ffffffffffffffffffffffffffffffffffffffff1673ffffffffffffffffffffffffffffffffffffffff16815260200190815260200160002060050154426040516106d9979695949392919061295c565b60405180910390a150600160008190555050565b8060108190555060006012600084815260200190815260200160002060009054906101000a900473ffffffffffffffffffffffffffffffffffffffff1690506000601160008373ffffffffffffffffffffffffffffffffffffffff1673ffffffffffffffffffffffffffffffffffffffff1681526020019081526020016000206005015490506000610815606473__$b417da84646892089ddb2453908ed8f0ce$__63e6aa743987601060146040518463ffffffff1660e01b81526004016107b793929190612bc0565b60206040518083038186803b1580156107cf57600080fd5b505af41580156107e3573d6000803e3d6000fd5b505050506040513d601f19601f820116820180604052508101906108079190612210565b6115fb90919063ffffffff16565b9050600061082c838361164590919063ffffffff16565b9050600960009054906101000a900473ffffffffffffffffffffffffffffffffffffffff1673ffffffffffffffffffffffffffffffffffffffff16632a7cd7b982866040518363ffffffff1660e01b815260040161088b929190612b60565b600060405180830381600087803b1580156108a557600080fd5b505af11580156108b9573d6000803e3d6000fd5b50505050610964670de0b6b3a764000073__$b417da84646892089ddb2453908ed8f0ce$__63e6aa743988600160056040518463ffffffff1660e01b815260040161090693929190612bf7565b60206040518083038186803b15801561091e57600080fd5b505af4158015610932573d6000803e3d6000fd5b505050506040513d601f19601f820116820180604052508101906109569190612210565b6115fb90919063ffffffff16565b601160008673ffffffffffffffffffffffffffffffffffffffff1673ffffffffffffffffffffffffffffffffffffffff16815260200190815260200160002060020181905550610a51670de0b6b3a764000073__$b417da84646892089ddb2453908ed8f0ce$__63e6aa7439886006600a6040518463ffffffff1660e01b81526004016109f393929190612c2e565b60206040518083038186803b158015610a0b57600080fd5b505af4158015610a1f573d6000803e3d6000fd5b505050506040513d601f19601f82011682018060405250810190610a439190612210565b6115fb90919063ffffffff16565b601160008673ffffffffffffffffffffffffffffffffffffffff1673ffffffffffffffffffffffffffffffffffffffff16815260200190815260200160002060030181905550610b3e670de0b6b3a764000073__$b417da84646892089ddb2453908ed8f0ce$__63e6aa743988600b600f6040518463ffffffff1660e01b8152600401610ae093929190612b89565b60206040518083038186803b158015610af857600080fd5b505af4158015610b0c573d6000803e3d6000fd5b505050506040513d601f19601f82011682018060405250810190610b309190612210565b6115fb90919063ffffffff16565b601160008673ffffffffffffffffffffffffffffffffffffffff1673ffffffffffffffffffffffffffffffffffffffff1681526020019081526020016000206004018190555081601160008673ffffffffffffffffffffffffffffffffffffffff1673ffffffffffffffffffffffffffffffffffffffff168152602001908152602001600020600501819055507fc58ddff2cd928258244ae6f415aa8f3569a8667ccc6a145688c82c1d3a4d4fa5848242604051610bfe939291906128b1565b60405180910390a1505050505050565b60126020528060005260406000206000915054906101000a900473ffffffffffffffffffffffffffffffffffffffff1681565b600760009054906101000a900473ffffffffffffffffffffffffffffffffffffffff1673ffffffffffffffffffffffffffffffffffffffff163373ffffffffffffffffffffffffffffffffffffffff1614610cd1576040517f08c379a0000000000000000000000000000000000000000000000000000000008152600401610cc890612aaa565b60405180910390fd5b80600b60006101000a81548173ffffffffffffffffffffffffffffffffffffffff021916908373ffffffffffffffffffffffffffffffffffffffff16021790555050565b600a60009054906101000a900473ffffffffffffffffffffffffffffffffffffffff1673ffffffffffffffffffffffffffffffffffffffff166323b872dd3330846040518463ffffffff1660e01b8152600401610d74939291906127b7565b602060405180830381600087803b158015610d8e57600080fd5b505af1158015610da2573d6000803e3d6000fd5b505050506040513d601f19601f82011682018060405250810190610dc69190612118565b5050565b60026000541415610e10576040517f08c379a0000000000000000000000000000000000000000000000000000000008152600401610e0790612b0a565b60405180910390fd5b60026000819055506000601160008373ffffffffffffffffffffffffffffffffffffffff1673ffffffffffffffffffffffffffffffffffffffff1681526020019081526020016000206001015414610e9d576040517f08c379a0000000000000000000000000000000000000000000000000000000008152600401610e9490612a8a565b60405180910390fd5b610ea5611f5f565b6040518060c001604052808373ffffffffffffffffffffffffffffffffffffffff168152602001600181526020016000815260200160008152602001600081526020016000815250905080601160008473ffffffffffffffffffffffffffffffffffffffff1673ffffffffffffffffffffffffffffffffffffffff16815260200190815260200160002060008201518160000160006101000a81548173ffffffffffffffffffffffffffffffffffffffff021916908373ffffffffffffffffffffffffffffffffffffffff1602179055506020820151816001015560408201518160020155606082015181600301556080820151816004015560a082015181600501559050506008829080600181540180825580915050600190039060005260206000200160009091909190916101000a81548173ffffffffffffffffffffffffffffffffffffffff021916908373ffffffffffffffffffffffffffffffffffffffff16021790555050600160008190555050565b600b60009054906101000a900473ffffffffffffffffffffffffffffffffffffffff1681565b6008818154811061104d57fe5b906000526020600020016000915054906101000a900473ffffffffffffffffffffffffffffffffffffffff1681565b6060600880548060200260200160405190810160405280929190818152602001828054801561110057602002820191906000526020600020905b8160009054906101000a900473ffffffffffffffffffffffffffffffffffffffff1673ffffffffffffffffffffffffffffffffffffffff16815260200190600101908083116110b6575b5050505050905090565b60116020528060005260406000206000915090508060000160009054906101000a900473ffffffffffffffffffffffffffffffffffffffff16908060010154908060020154908060030154908060040154908060050154905086565b600760009054906101000a900473ffffffffffffffffffffffffffffffffffffffff1681565b611194611f5f565b601160008373ffffffffffffffffffffffffffffffffffffffff1673ffffffffffffffffffffffffffffffffffffffff1681526020019081526020016000206040518060c00160405290816000820160009054906101000a900473ffffffffffffffffffffffffffffffffffffffff1673ffffffffffffffffffffffffffffffffffffffff1673ffffffffffffffffffffffffffffffffffffffff168152602001600182015481526020016002820154815260200160038201548152602001600482015481526020016005820154815250509050919050565b60105481565b6001601160008373ffffffffffffffffffffffffffffffffffffffff1673ffffffffffffffffffffffffffffffffffffffff1681526020019081526020016000206001015410156112f9576040517f08c379a00000000000000000000000000000000000000000000000000000000081526004016112f090612a2a565b60405180910390fd5b611301611fab565b611315600d5430633a44bc3e60e01b61168f565b90506113ec6040518060400160405280600381526020017f646f67000000000000000000000000000000000000000000000000000000000081525073__$b417da84646892089ddb2453908ed8f0ce$__635e57966d856040518263ffffffff1660e01b81526004016113879190612781565b60006040518083038186803b15801561139f57600080fd5b505af41580156113b3573d6000803e3d6000fd5b505050506040513d6000823e3d601f19601f820116820180604052508101906113dc91906121a6565b836116c09092919063ffffffff16565b600061141d600b60009054906101000a900473ffffffffffffffffffffffffffffffffffffffff1683600c546116f3565b905080600e81905550826012600083815260200190815260200160002060006101000a81548173ffffffffffffffffffffffffffffffffffffffff021916908373ffffffffffffffffffffffffffffffffffffffff160217905550505050565b600080601160008473ffffffffffffffffffffffffffffffffffffffff1673ffffffffffffffffffffffffffffffffffffffff1681526020019081526020016000206003015490506000601160008573ffffffffffffffffffffffffffffffffffffffff1673ffffffffffffffffffffffffffffffffffffffff1681526020019081526020016000206002015490506000601160008673ffffffffffffffffffffffffffffffffffffffff1673ffffffffffffffffffffffffffffffffffffffff16815260200190815260200160002060040154905060006115b361156c600a846118bd90919063ffffffff16565b6115a56115836002876115fb90919063ffffffff16565b6115976002896118bd90919063ffffffff16565b61192d90919063ffffffff16565b61192d90919063ffffffff16565b905060508111156115cb5760029450505050506115f6565b601e811180156115db5750605081105b156115ed5760019450505050506115f6565b60009450505050505b919050565b600061163d83836040518060400160405280601a81526020017f536166654d6174683a206469766973696f6e206279207a65726f000000000000815250611982565b905092915050565b600061168783836040518060400160405280601e81526020017f536166654d6174683a207375627472616374696f6e206f766572666c6f7700008152506119e3565b905092915050565b611697611fab565b61169f611fab565b6116b685858584611a3e909392919063ffffffff16565b9150509392505050565b6116d7828460800151611aee90919063ffffffff16565b6116ee818460800151611aee90919063ffffffff16565b505050565b60003060055460405160200161170a929190612755565b604051602081830303815290604052805190602001209050600554836060018181525050836006600083815260200190815260200160002060006101000a81548173ffffffffffffffffffffffffffffffffffffffff021916908373ffffffffffffffffffffffffffffffffffffffff160217905550807fb5e6e01e79f91267dc17b4e6314d5d4d03593d2ceee0fbb452b750bd70ea5af960405160405180910390a2600360009054906101000a900473ffffffffffffffffffffffffffffffffffffffff1673ffffffffffffffffffffffffffffffffffffffff16634000aea085846117f687611b13565b6040518463ffffffff1660e01b815260040161181493929190612873565b602060405180830381600087803b15801561182e57600080fd5b505af1158015611842573d6000803e3d6000fd5b505050506040513d601f19601f820116820180604052508101906118669190612118565b6118a5576040517f08c379a000000000000000000000000000000000000000000000000000000000815260040161189c90612a6a565b60405180910390fd5b60016005600082825401925050819055509392505050565b6000808314156118d05760009050611927565b60008284029050828482816118e157fe5b0414611922576040517f08c379a000000000000000000000000000000000000000000000000000000000815260040161191990612aca565b60405180910390fd5b809150505b92915050565b600080828401905083811015611978576040517f08c379a000000000000000000000000000000000000000000000000000000000815260040161196f90612a4a565b60405180910390fd5b8091505092915050565b600080831182906119c9576040517f08c379a00000000000000000000000000000000000000000000000000000000081526004016119c09190612a08565b60405180910390fd5b5060008385816119d557fe5b049050809150509392505050565b6000838311158290611a2b576040517f08c379a0000000000000000000000000000000000000000000000000000000008152600401611a229190612a08565b60405180910390fd5b5060008385039050809150509392505050565b611a46611fab565b611a568560800151610100611bba565b508385600001818152505082856020019073ffffffffffffffffffffffffffffffffffffffff16908173ffffffffffffffffffffffffffffffffffffffff16815250508185604001907bffffffffffffffffffffffffffffffffffffffffffffffffffffffff191690817bffffffffffffffffffffffffffffffffffffffffffffffffffffffff191681525050849050949350505050565b611afb8260038351611c0e565b611b0e8183611d5390919063ffffffff16565b505050565b6060634042994660e01b60008084600001518560200151866040015187606001516001896080015160000151604051602401611b569897969594939291906127ee565b604051602081830303815290604052907bffffffffffffffffffffffffffffffffffffffffffffffffffffffff19166020820180517bffffffffffffffffffffffffffffffffffffffffffffffffffffffff83818316178352505050509050919050565b611bc2612018565b600060208381611bce57fe5b0614611be75760208281611bde57fe5b06602003820191505b81836020018181525050604051808452600081528281016020016040525082905092915050565b60178111611c3b57611c358160058460ff16901b60ff161784611d7590919063ffffffff16565b50611d4e565b60ff8111611c7d57611c60601860058460ff16901b1784611d7590919063ffffffff16565b50611c7781600185611d959092919063ffffffff16565b50611d4d565b61ffff8111611cc057611ca3601960058460ff16901b1784611d7590919063ffffffff16565b50611cba81600285611d959092919063ffffffff16565b50611d4c565b63ffffffff8111611d0557611ce8601a60058460ff16901b1784611d7590919063ffffffff16565b50611cff81600485611d959092919063ffffffff16565b50611d4b565b67ffffffffffffffff8111611d4a57611d31601b60058460ff16901b1784611d7590919063ffffffff16565b50611d4881600885611d959092919063ffffffff16565b505b5b5b5b5b505050565b611d5b612018565b611d6d83846000015151848551611db7565b905092915050565b611d7d612018565b611d8d8384600001515184611e70565b905092915050565b611d9d612018565b611dae848560000151518585611ebe565b90509392505050565b611dbf612018565b8251821115611dcd57600080fd5b84602001518285011115611df857611df7856002611df18860200151888701611f1f565b02611f3b565b5b600080865180518760208301019350808887011115611e175787860182525b60208701925050505b60208410611e435780518252602082019150602081019050602084039350611e20565b60006001856020036101000a03905080198251168184511681811785525050879350505050949350505050565b611e78612018565b83602001518310611e9557611e94846002866020015102611f3b565b5b8351805160208583010184815381861415611eb1576001820183525b5050508390509392505050565b611ec6612018565b84602001518483011115611ee457611ee385600286850102611f3b565b5b60006001836101000a0390508551838682010185831982511617815281518588011115611f115784870182525b505085915050949350505050565b600081831115611f3157829050611f35565b8190505b92915050565b606082600001519050611f4e8383611bba565b50611f598382611d53565b50505050565b6040518060c00160405280600073ffffffffffffffffffffffffffffffffffffffff16815260200160008152602001600081526020016000815260200160008152602001600081525090565b6040518060a0016040528060008019168152602001600073ffffffffffffffffffffffffffffffffffffffff16815260200160007bffffffffffffffffffffffffffffffffffffffffffffffffffffffff1916815260200160008152602001612012612018565b81525090565b604051806040016040528060608152602001600081525090565b60008135905061204181612f16565b92915050565b60008151905061205681612f2d565b92915050565b60008135905061206b81612f44565b92915050565b600082601f83011261208257600080fd5b815161209561209082612c92565b612c65565b915080825260208301602083018583830111156120b157600080fd5b6120bc838284612e97565b50505092915050565b6000813590506120d481612f5b565b92915050565b6000815190506120e981612f5b565b92915050565b60006020828403121561210157600080fd5b600061210f84828501612032565b91505092915050565b60006020828403121561212a57600080fd5b600061213884828501612047565b91505092915050565b60006020828403121561215357600080fd5b60006121618482850161205c565b91505092915050565b6000806040838503121561217d57600080fd5b600061218b8582860161205c565b925050602061219c858286016120c5565b9150509250929050565b6000602082840312156121b857600080fd5b600082015167ffffffffffffffff8111156121d257600080fd5b6121de84828501612071565b91505092915050565b6000602082840312156121f957600080fd5b6000612207848285016120c5565b91505092915050565b60006020828403121561222257600080fd5b6000612230848285016120da565b91505092915050565b60006122458383612260565b60208301905092915050565b61225a81612dad565b82525050565b61226981612d2f565b82525050565b61227881612d2f565b82525050565b61228781612d2f565b82525050565b600061229882612cce565b6122a28185612cfc565b93506122ad83612cbe565b8060005b838110156122de5781516122c58882612239565b97506122d083612cef565b9250506001810190506122b1565b5085935050505092915050565b6122f481612d4d565b82525050565b61230381612d57565b82525050565b600061231482612cd9565b61231e8185612d0d565b935061232e818560208601612e97565b61233781612ef8565b840191505092915050565b61235361234e82612dbf565b612eca565b82525050565b61236281612de3565b82525050565b61237181612df5565b82525050565b61238081612e07565b82525050565b61238f81612e19565b82525050565b61239e81612e2b565b82525050565b6123ad81612e3d565b82525050565b6123bc81612e4f565b82525050565b6123cb81612e61565b82525050565b60006123dc82612ce4565b6123e68185612d1e565b93506123f6818560208601612e97565b6123ff81612ef8565b840191505092915050565b6000612417601a83612d1e565b91507f626164676520686173206e6f74206265656e20637265617465640000000000006000830152602082019050919050565b6000612457601b83612d1e565b91507f536166654d6174683a206164646974696f6e206f766572666c6f7700000000006000830152602082019050919050565b6000612497602383612d1e565b91507f756e61626c6520746f207472616e73666572416e6443616c6c20746f206f726160008301527f636c6500000000000000000000000000000000000000000000000000000000006020830152604082019050919050565b60006124fd601f83612d1e565b91507f6261646765742068617320616c7265616479206265656e2063726561746564006000830152602082019050919050565b600061253d601e83612d1e565b91507f6f6e6c79207368656c7465722063616e206368616e6765206f7261636c6500006000830152602082019050919050565b600061257d602183612d1e565b91507f536166654d6174683a206d756c7469706c69636174696f6e206f766572666c6f60008301527f77000000000000000000000000000000000000000000000000000000000000006020830152604082019050919050565b60006125e3601b83612d1e565b91507f62616467657420686173206e6f74206265656e206372656174656400000000006000830152602082019050919050565b6000612623600883612d1e565b91507f57616c6b205061790000000000000000000000000000000000000000000000006000830152602082019050919050565b6000612663601f83612d1e565b91507f5265656e7472616e637947756172643a207265656e7472616e742063616c6c006000830152602082019050919050565b60c0820160008201516126ac6000850182612260565b5060208201516126bf6020850182612711565b5060408201516126d26040850182612711565b5060608201516126e56060850182612711565b5060808201516126f86080850182612711565b5060a082015161270b60a0850182612711565b50505050565b61271a81612da3565b82525050565b61272981612da3565b82525050565b61273881612da3565b82525050565b61274f61274a82612da3565b612eee565b82525050565b60006127618285612342565b601482019150612771828461273e565b6020820191508190509392505050565b6000602082019050612796600083018461227e565b92915050565b60006020820190506127b1600083018461226f565b92915050565b60006060820190506127cc6000830186612251565b6127d9602083018561226f565b6127e66040830184612720565b949350505050565b600061010082019050612804600083018b61226f565b612811602083018a612720565b61281e60408301896122eb565b61282b606083018861226f565b61283860808301876122fa565b61284560a0830186612720565b61285260c0830185612720565b81810360e08301526128648184612309565b90509998505050505050505050565b6000606082019050612888600083018661226f565b6128956020830185612720565b81810360408301526128a78184612309565b9050949350505050565b60006080820190506128c6600083018661226f565b6128d36020830185612720565b81810360408301526128e481612616565b90506128f36060830184612720565b949350505050565b600060c082019050612910600083018961226f565b61291d6020830188612720565b61292a6040830187612720565b6129376060830186612720565b6129446080830185612720565b61295160a0830184612720565b979650505050505050565b600060e082019050612971600083018a61226f565b61297e6020830189612720565b61298b6040830188612720565b6129986060830187612720565b6129a56080830186612720565b6129b260a0830185612720565b6129bf60c0830184612720565b98975050505050505050565b600060208201905081810360008301526129e5818461228d565b905092915050565b6000602082019050612a0260008301846122eb565b92915050565b60006020820190508181036000830152612a2281846123d1565b905092915050565b60006020820190508181036000830152612a438161240a565b9050919050565b60006020820190508181036000830152612a638161244a565b9050919050565b60006020820190508181036000830152612a838161248a565b9050919050565b60006020820190508181036000830152612aa3816124f0565b9050919050565b60006020820190508181036000830152612ac381612530565b9050919050565b60006020820190508181036000830152612ae381612570565b9050919050565b60006020820190508181036000830152612b03816125d6565b9050919050565b60006020820190508181036000830152612b2381612656565b9050919050565b600060c082019050612b3f6000830184612696565b92915050565b6000602082019050612b5a6000830184612720565b92915050565b6000604082019050612b756000830185612720565b612b82602083018461226f565b9392505050565b6000606082019050612b9e600083018661272f565b612bab6020830185612368565b612bb86040830184612377565b949350505050565b6000606082019050612bd5600083018661272f565b612be26020830185612386565b612bef60408301846123a4565b949350505050565b6000606082019050612c0c600083018661272f565b612c196020830185612395565b612c2660408301846123b3565b949350505050565b6000606082019050612c43600083018661272f565b612c5060208301856123c2565b612c5d6040830184612359565b949350505050565b6000604051905081810181811067ffffffffffffffff82111715612c8857600080fd5b8060405250919050565b600067ffffffffffffffff821115612ca957600080fd5b601f19601f8301169050602081019050919050565b6000819050602082019050919050565b600081519050919050565b600081519050919050565b600081519050919050565b6000602082019050919050565b600082825260208201905092915050565b600082825260208201905092915050565b600082825260208201905092915050565b6000612d3a82612d83565b9050919050565b60008115159050919050565b6000819050919050565b60007fffffffff0000000000000000000000000000000000000000000000000000000082169050919050565b600073ffffffffffffffffffffffffffffffffffffffff82169050919050565b6000819050919050565b6000612db882612e73565b9050919050565b6000612dca82612dd1565b9050919050565b6000612ddc82612d83565b9050919050565b6000612dee82612da3565b9050919050565b6000612e0082612da3565b9050919050565b6000612e1282612da3565b9050919050565b6000612e2482612da3565b9050919050565b6000612e3682612da3565b9050919050565b6000612e4882612da3565b9050919050565b6000612e5a82612da3565b9050919050565b6000612e6c82612da3565b9050919050565b6000612e7e82612e85565b9050919050565b6000612e9082612d83565b9050919050565b60005b83811015612eb5578082015181840152602081019050612e9a565b83811115612ec4576000848401525b50505050565b6000612ed582612edc565b9050919050565b6000612ee782612f09565b9050919050565b6000819050919050565b6000601f19601f8301169050919050565b60008160601b9050919050565b612f1f81612d2f565b8114612f2a57600080fd5b50565b612f3681612d41565b8114612f4157600080fd5b50565b612f4d81612d4d565b8114612f5857600080fd5b50565b612f6481612da3565b8114612f6f57600080fd5b5056fea26469706673582212207cb40bf541caad8ff839885e7bba4be527013baebb513d4eb586406033967ee764736f6c634300060c0033",
  "linkReferences": {
    "contracts/typesLibrary.sol": {
      "typesLibrary": [
        {
          "length": 20,
          "start": 2804
        },
        {
          "length": 20,
          "start": 3139
        },
        {
          "length": 20,
          "start": 3376
        },
        {
          "length": 20,
          "start": 3613
        },
        {
          "length": 20,
          "start": 5834
        }
      ]
    }
  },
  "deployedLinkReferences": {
    "contracts/typesLibrary.sol": {
      "typesLibrary": [
        {
          "length": 20,
          "start": 1916
        },
        {
          "length": 20,
          "start": 2251
        },
        {
          "length": 20,
          "start": 2488
        },
        {
          "length": 20,
          "start": 2725
        },
        {
          "length": 20,
          "start": 4946
        }
      ]
    }
  }
}