{
  "_format": "hh-sol-artifact-1",
  "contractName": "WalkTokenExchange",
  "sourceName": "contracts/Exchange.sol",
  "abi": [
    {
      "inputs": [
        {
          "internalType": "address",
          "name": "_WT",
          "type": "address"
        },
        {
          "internalType": "address",
          "name": "_Dai",
          "type": "address"
        },
        {
          "internalType": "address",
          "name": "_ILP",
          "type": "address"
        }
      ],
      "stateMutability": "nonpayable",
      "type": "constructor"
    },
    {
      "stateMutability": "payable",
      "type": "fallback"
    },
    {
      "inputs": [
        {
          "internalType": "uint256",
          "name": "_value",
          "type": "uint256"
        }
      ],
      "name": "depositAAVE",
      "outputs": [],
      "stateMutability": "nonpayable",
      "type": "function"
    },
    {
      "inputs": [
        {
          "internalType": "uint256",
          "name": "_value",
          "type": "uint256"
        }
      ],
      "name": "recieveDai",
      "outputs": [],
      "stateMutability": "nonpayable",
      "type": "function"
    },
    {
      "inputs": [
        {
          "internalType": "uint256",
          "name": "_value",
          "type": "uint256"
        }
      ],
      "name": "recieveWT",
      "outputs": [],
      "stateMutability": "nonpayable",
      "type": "function"
    },
    {
      "inputs": [
        {
          "internalType": "uint256",
          "name": "_DaitoRedeem",
          "type": "uint256"
        }
      ],
      "name": "redeemWTforDai",
      "outputs": [],
      "stateMutability": "nonpayable",
      "type": "function"
    },
    {
      "inputs": [
        {
          "internalType": "uint256",
          "name": "_value",
          "type": "uint256"
        }
      ],
      "name": "withdrawDai",
      "outputs": [],
      "stateMutability": "nonpayable",
      "type": "function"
    },
    {
      "inputs": [
        {
          "internalType": "address payable",
          "name": "_to",
          "type": "address"
        }
      ],
      "name": "withdrawETH",
      "outputs": [],
      "stateMutability": "payable",
      "type": "function"
    },
    {
      "stateMutability": "payable",
      "type": "receive"
    }
  ],
  "bytecode": "0x60806040523480156200001157600080fd5b506040516200143e3803806200143e833981810160405281019062000037919062000163565b600160008190555033600160006101000a81548173ffffffffffffffffffffffffffffffffffffffff021916908373ffffffffffffffffffffffffffffffffffffffff16021790555081600260006101000a81548173ffffffffffffffffffffffffffffffffffffffff021916908373ffffffffffffffffffffffffffffffffffffffff16021790555082600360006101000a81548173ffffffffffffffffffffffffffffffffffffffff021916908373ffffffffffffffffffffffffffffffffffffffff16021790555080600460006101000a81548173ffffffffffffffffffffffffffffffffffffffff021916908373ffffffffffffffffffffffffffffffffffffffff16021790555050505062000207565b6000815190506200015d81620001ed565b92915050565b6000806000606084860312156200017957600080fd5b600062000189868287016200014c565b93505060206200019c868287016200014c565b9250506040620001af868287016200014c565b9150509250925092565b6000620001c682620001cd565b9050919050565b600073ffffffffffffffffffffffffffffffffffffffff82169050919050565b620001f881620001b9565b81146200020457600080fd5b50565b61122780620002176000396000f3fe6080604052600436106100595760003560e01c80634535626814610062578063690d83201461008b5780636a26c3fb146100a757806370410616146100d057806393a991af146100f9578063a06c48831461012257610060565b3661006057005b005b34801561006e57600080fd5b5061008960048036038101906100849190610c2b565b61014b565b005b6100a560048036038101906100a09190610bd9565b610200565b005b3480156100b357600080fd5b506100ce60048036038101906100c99190610c2b565b61030d565b005b3480156100dc57600080fd5b506100f760048036038101906100f29190610c2b565b6104e8565b005b34801561010557600080fd5b50610120600480360381019061011b9190610c2b565b61062d565b005b34801561012e57600080fd5b5061014960048036038101906101449190610c2b565b610822565b005b600360009054906101000a900473ffffffffffffffffffffffffffffffffffffffff1673ffffffffffffffffffffffffffffffffffffffff166323b872dd3330846040518463ffffffff1660e01b81526004016101aa93929190610f06565b602060405180830381600087803b1580156101c457600080fd5b505af11580156101d8573d6000803e3d6000fd5b505050506040513d601f19601f820116820180604052508101906101fc9190610c02565b5050565b600160009054906101000a900473ffffffffffffffffffffffffffffffffffffffff1673ffffffffffffffffffffffffffffffffffffffff163373ffffffffffffffffffffffffffffffffffffffff1614610290576040517f08c379a00000000000000000000000000000000000000000000000000000000081526004016102879061108b565b60405180910390fd5b60008173ffffffffffffffffffffffffffffffffffffffff166108fc349081150290604051600060405180830381858888f19350505050905080610309576040517f08c379a00000000000000000000000000000000000000000000000000000000081526004016103009061102b565b60405180910390fd5b5050565b6000600360009054906101000a900473ffffffffffffffffffffffffffffffffffffffff1673ffffffffffffffffffffffffffffffffffffffff166370a08231336040518263ffffffff1660e01b815260040161036a9190610eeb565b60206040518083038186803b15801561038257600080fd5b505afa158015610396573d6000803e3d6000fd5b505050506040513d601f19601f820116820180604052508101906103ba9190610c54565b905060006103d2606484610a3d90919063ffffffff16565b905080821015610417576040517f08c379a000000000000000000000000000000000000000000000000000000000815260040161040e906110cb565b60405180910390fd5b6104208161014b565b6000600260009054906101000a900473ffffffffffffffffffffffffffffffffffffffff1673ffffffffffffffffffffffffffffffffffffffff166370a08231306040518263ffffffff1660e01b815260040161047d9190610eeb565b60206040518083038186803b15801561049557600080fd5b505afa1580156104a9573d6000803e3d6000fd5b505050506040513d601f19601f820116820180604052508101906104cd9190610c54565b9050838110156104e2576104e18433610aad565b5b50505050565b600160009054906101000a900473ffffffffffffffffffffffffffffffffffffffff1673ffffffffffffffffffffffffffffffffffffffff163373ffffffffffffffffffffffffffffffffffffffff1614610578576040517f08c379a000000000000000000000000000000000000000000000000000000000815260040161056f906110ab565b60405180910390fd5b600260009054906101000a900473ffffffffffffffffffffffffffffffffffffffff1673ffffffffffffffffffffffffffffffffffffffff166323b872dd3330846040518463ffffffff1660e01b81526004016105d793929190610f06565b602060405180830381600087803b1580156105f157600080fd5b505af1158015610605573d6000803e3d6000fd5b505050506040513d601f19601f820116820180604052508101906106299190610c02565b5050565b600160009054906101000a900473ffffffffffffffffffffffffffffffffffffffff1673ffffffffffffffffffffffffffffffffffffffff163373ffffffffffffffffffffffffffffffffffffffff16146106bd576040517f08c379a00000000000000000000000000000000000000000000000000000000081526004016106b49061106b565b60405180910390fd5b600260009054906101000a900473ffffffffffffffffffffffffffffffffffffffff1673ffffffffffffffffffffffffffffffffffffffff1663095ea7b333836040518363ffffffff1660e01b815260040161071a929190610f3d565b602060405180830381600087803b15801561073457600080fd5b505af1158015610748573d6000803e3d6000fd5b505050506040513d601f19601f8201168201806040525081019061076c9190610c02565b50600260009054906101000a900473ffffffffffffffffffffffffffffffffffffffff1673ffffffffffffffffffffffffffffffffffffffff166323b872dd3033846040518463ffffffff1660e01b81526004016107cc93929190610f06565b602060405180830381600087803b1580156107e657600080fd5b505af11580156107fa573d6000803e3d6000fd5b505050506040513d601f19601f8201168201806040525081019061081e9190610c02565b5050565b600160009054906101000a900473ffffffffffffffffffffffffffffffffffffffff1673ffffffffffffffffffffffffffffffffffffffff163373ffffffffffffffffffffffffffffffffffffffff16146108b2576040517f08c379a00000000000000000000000000000000000000000000000000000000081526004016108a99061100b565b60405180910390fd5b600260009054906101000a900473ffffffffffffffffffffffffffffffffffffffff1673ffffffffffffffffffffffffffffffffffffffff1663095ea7b3600460009054906101000a900473ffffffffffffffffffffffffffffffffffffffff16836040518363ffffffff1660e01b8152600401610931929190610f66565b602060405180830381600087803b15801561094b57600080fd5b505af115801561095f573d6000803e3d6000fd5b505050506040513d601f19601f820116820180604052508101906109839190610c02565b50600460009054906101000a900473ffffffffffffffffffffffffffffffffffffffff1673ffffffffffffffffffffffffffffffffffffffff1663e8eda9df600260009054906101000a900473ffffffffffffffffffffffffffffffffffffffff16833060006040518563ffffffff1660e01b8152600401610a089493929190610fc6565b600060405180830381600087803b158015610a2257600080fd5b505af1158015610a36573d6000803e3d6000fd5b5050505050565b600080831415610a505760009050610aa7565b6000828402905082848281610a6157fe5b0414610aa2576040517f08c379a0000000000000000000000000000000000000000000000000000000008152600401610a999061104b565b60405180910390fd5b809150505b92915050565b600460009054906101000a900473ffffffffffffffffffffffffffffffffffffffff1673ffffffffffffffffffffffffffffffffffffffff166369328dec600260009054906101000a900473ffffffffffffffffffffffffffffffffffffffff1684846040518463ffffffff1660e01b8152600401610b2e93929190610f8f565b602060405180830381600087803b158015610b4857600080fd5b505af1158015610b5c573d6000803e3d6000fd5b505050506040513d601f19601f82011682018060405250810190610b809190610c54565b505050565b600081359050610b94816111ac565b92915050565b600081519050610ba9816111c3565b92915050565b600081359050610bbe816111da565b92915050565b600081519050610bd3816111da565b92915050565b600060208284031215610beb57600080fd5b6000610bf984828501610b85565b91505092915050565b600060208284031215610c1457600080fd5b6000610c2284828501610b9a565b91505092915050565b600060208284031215610c3d57600080fd5b6000610c4b84828501610baf565b91505092915050565b600060208284031215610c6657600080fd5b6000610c7484828501610bc4565b91505092915050565b610c8681611164565b82525050565b610c95816110fc565b82525050565b610ca481611176565b82525050565b6000610cb76026836110eb565b91507f6f6e6c79207368656c7465722063616e2061646a75737420414156452066756e60008301527f6374696f6e7300000000000000000000000000000000000000000000000000006020830152604082019050919050565b6000610d1d6014836110eb565b91507f4661696c656420746f2073656e642045746865720000000000000000000000006000830152602082019050919050565b6000610d5d6021836110eb565b91507f536166654d6174683a206d756c7469706c69636174696f6e206f766572666c6f60008301527f77000000000000000000000000000000000000000000000000000000000000006020830152604082019050919050565b6000610dc3601d836110eb565b91507f6f6e6c79207368656c7465722063616e207769746864726177204461690000006000830152602082019050919050565b6000610e03601d836110eb565b91507f6f6e6c79207368656c7465722063616e207769746864726177204554480000006000830152602082019050919050565b6000610e43601c836110eb565b91507f6f6e6c79207368656c7465722063616e206465706f73697420446169000000006000830152602082019050919050565b6000610e83603e836110eb565b91507f496e73756666696369656e742077616c6b546f6b656e7320746f20726564656560008301527f6d20776974682e203130302057542061726520776f72746820312044616900006020830152604082019050919050565b610ee58161115a565b82525050565b6000602082019050610f006000830184610c7d565b92915050565b6000606082019050610f1b6000830186610c7d565b610f286020830185610c7d565b610f356040830184610edc565b949350505050565b6000604082019050610f526000830185610c7d565b610f5f6020830184610edc565b9392505050565b6000604082019050610f7b6000830185610c8c565b610f886020830184610edc565b9392505050565b6000606082019050610fa46000830186610c8c565b610fb16020830185610edc565b610fbe6040830184610c8c565b949350505050565b6000608082019050610fdb6000830187610c8c565b610fe86020830186610edc565b610ff56040830185610c7d565b6110026060830184610c9b565b95945050505050565b6000602082019050818103600083015261102481610caa565b9050919050565b6000602082019050818103600083015261104481610d10565b9050919050565b6000602082019050818103600083015261106481610d50565b9050919050565b6000602082019050818103600083015261108481610db6565b9050919050565b600060208201905081810360008301526110a481610df6565b9050919050565b600060208201905081810360008301526110c481610e36565b9050919050565b600060208201905081810360008301526110e481610e76565b9050919050565b600082825260208201905092915050565b60006111078261113a565b9050919050565b60006111198261113a565b9050919050565b60008115159050919050565b600061ffff82169050919050565b600073ffffffffffffffffffffffffffffffffffffffff82169050919050565b6000819050919050565b600061116f82611188565b9050919050565b60006111818261112c565b9050919050565b60006111938261119a565b9050919050565b60006111a58261113a565b9050919050565b6111b58161110e565b81146111c057600080fd5b50565b6111cc81611120565b81146111d757600080fd5b50565b6111e38161115a565b81146111ee57600080fd5b5056fea2646970667358221220aa8a8d70d5977bb14121da603959839b17a7e9803744206df708538fadfcb1dc64736f6c634300060c0033",
  "linkReferences": {},
  "deployedLinkReferences": {}
}