{
  "_format": "hh-sol-artifact-1",
  "contractName": "WalkTokenExchange",
  "sourceName": "contracts/Exchange.sol",
  "abi": [
    {
      "inputs": [
        {
          "internalType": "address",
          "name": "_WT",
          "type": "address"
        },
        {
          "internalType": "address",
          "name": "_Dai",
          "type": "address"
        },
        {
          "internalType": "address",
          "name": "_ILP",
          "type": "address"
        },
        {
          "internalType": "address",
          "name": "_ToyNFT",
          "type": "address"
        }
      ],
      "stateMutability": "nonpayable",
      "type": "constructor"
    },
    {
      "anonymous": false,
      "inputs": [
        {
          "indexed": false,
          "internalType": "address",
          "name": "spender",
          "type": "address"
        },
        {
          "indexed": false,
          "internalType": "uint256",
          "name": "amount",
          "type": "uint256"
        },
        {
          "indexed": false,
          "internalType": "string",
          "name": "action",
          "type": "string"
        },
        {
          "indexed": false,
          "internalType": "uint256",
          "name": "time",
          "type": "uint256"
        }
      ],
      "name": "boughtToy",
      "type": "event"
    },
    {
      "anonymous": false,
      "inputs": [
        {
          "indexed": false,
          "internalType": "address",
          "name": "spender",
          "type": "address"
        },
        {
          "indexed": false,
          "internalType": "uint256",
          "name": "amount",
          "type": "uint256"
        },
        {
          "indexed": false,
          "internalType": "string",
          "name": "action",
          "type": "string"
        },
        {
          "indexed": false,
          "internalType": "uint256",
          "name": "time",
          "type": "uint256"
        }
      ],
      "name": "redeemedDai",
      "type": "event"
    },
    {
      "stateMutability": "payable",
      "type": "fallback"
    },
    {
      "inputs": [
        {
          "internalType": "string",
          "name": "name",
          "type": "string"
        }
      ],
      "name": "buyDogToyNFT",
      "outputs": [],
      "stateMutability": "nonpayable",
      "type": "function"
    },
    {
      "inputs": [
        {
          "internalType": "uint256",
          "name": "_value",
          "type": "uint256"
        }
      ],
      "name": "depositAAVE",
      "outputs": [],
      "stateMutability": "nonpayable",
      "type": "function"
    },
    {
      "inputs": [
        {
          "internalType": "uint256",
          "name": "_value",
          "type": "uint256"
        }
      ],
      "name": "recieveDai",
      "outputs": [],
      "stateMutability": "nonpayable",
      "type": "function"
    },
    {
      "inputs": [
        {
          "internalType": "uint256",
          "name": "_value",
          "type": "uint256"
        }
      ],
      "name": "recieveWT",
      "outputs": [],
      "stateMutability": "nonpayable",
      "type": "function"
    },
    {
      "inputs": [
        {
          "internalType": "uint256",
          "name": "_DaitoRedeem",
          "type": "uint256"
        }
      ],
      "name": "redeemWTforDai",
      "outputs": [],
      "stateMutability": "nonpayable",
      "type": "function"
    },
    {
      "inputs": [
        {
          "internalType": "address",
          "name": "_ToyNFT",
          "type": "address"
        }
      ],
      "name": "setNewToy",
      "outputs": [],
      "stateMutability": "nonpayable",
      "type": "function"
    },
    {
      "inputs": [
        {
          "internalType": "uint256",
          "name": "_value",
          "type": "uint256"
        }
      ],
      "name": "withdrawDai",
      "outputs": [],
      "stateMutability": "nonpayable",
      "type": "function"
    },
    {
      "inputs": [
        {
          "internalType": "address payable",
          "name": "_to",
          "type": "address"
        }
      ],
      "name": "withdrawETH",
      "outputs": [],
      "stateMutability": "payable",
      "type": "function"
    },
    {
      "stateMutability": "payable",
      "type": "receive"
    }
  ],
  "bytecode": "0x6080604052683635c9adc5dea000006006553480156200001e57600080fd5b5060405162001ced38038062001ced8339818101604052810190620000449190620001b2565b600160008190555033600160006101000a81548173ffffffffffffffffffffffffffffffffffffffff021916908373ffffffffffffffffffffffffffffffffffffffff16021790555082600260006101000a81548173ffffffffffffffffffffffffffffffffffffffff021916908373ffffffffffffffffffffffffffffffffffffffff16021790555083600360006101000a81548173ffffffffffffffffffffffffffffffffffffffff021916908373ffffffffffffffffffffffffffffffffffffffff16021790555081600460006101000a81548173ffffffffffffffffffffffffffffffffffffffff021916908373ffffffffffffffffffffffffffffffffffffffff16021790555080600560006101000a81548173ffffffffffffffffffffffffffffffffffffffff021916908373ffffffffffffffffffffffffffffffffffffffff160217905550505050506200026c565b600081519050620001ac8162000252565b92915050565b60008060008060808587031215620001c957600080fd5b6000620001d9878288016200019b565b9450506020620001ec878288016200019b565b9350506040620001ff878288016200019b565b925050606062000212878288016200019b565b91505092959194509250565b60006200022b8262000232565b9050919050565b600073ffffffffffffffffffffffffffffffffffffffff82169050919050565b6200025d816200021e565b81146200026957600080fd5b50565b611a71806200027c6000396000f3fe60806040526004361061007f5760003560e01c8063704106161161004e578063704106161461011f57806380eb08b51461014857806393a991af14610171578063a06c48831461019a57610086565b8063318e17911461008857806345356268146100b1578063690d8320146100da5780636a26c3fb146100f657610086565b3661008657005b005b34801561009457600080fd5b506100af60048036038101906100aa919061109f565b6101c3565b005b3480156100bd57600080fd5b506100d860048036038101906100d3919061115f565b610297565b005b6100f460048036038101906100ef91906110c8565b61034c565b005b34801561010257600080fd5b5061011d6004803603810190610118919061115f565b610459565b005b34801561012b57600080fd5b506101466004803603810190610141919061115f565b61066f565b005b34801561015457600080fd5b5061016f600480360381019061016a919061111a565b6107b4565b005b34801561017d57600080fd5b506101986004803603810190610193919061115f565b610a94565b005b3480156101a657600080fd5b506101c160048036038101906101bc919061115f565b610c89565b005b600160009054906101000a900473ffffffffffffffffffffffffffffffffffffffff1673ffffffffffffffffffffffffffffffffffffffff163373ffffffffffffffffffffffffffffffffffffffff1614610253576040517f08c379a000000000000000000000000000000000000000000000000000000000815260040161024a9061187e565b60405180910390fd5b80600560006101000a81548173ffffffffffffffffffffffffffffffffffffffff021916908373ffffffffffffffffffffffffffffffffffffffff16021790555050565b600360009054906101000a900473ffffffffffffffffffffffffffffffffffffffff1673ffffffffffffffffffffffffffffffffffffffff166323b872dd3330846040518463ffffffff1660e01b81526004016102f6939291906115f3565b602060405180830381600087803b15801561031057600080fd5b505af1158015610324573d6000803e3d6000fd5b505050506040513d601f19601f8201168201806040525081019061034891906110f1565b5050565b600160009054906101000a900473ffffffffffffffffffffffffffffffffffffffff1673ffffffffffffffffffffffffffffffffffffffff163373ffffffffffffffffffffffffffffffffffffffff16146103dc576040517f08c379a00000000000000000000000000000000000000000000000000000000081526004016103d39061185e565b60405180910390fd5b60008173ffffffffffffffffffffffffffffffffffffffff166108fc349081150290604051600060405180830381858888f19350505050905080610455576040517f08c379a000000000000000000000000000000000000000000000000000000000815260040161044c906117fe565b60405180910390fd5b5050565b6000600360009054906101000a900473ffffffffffffffffffffffffffffffffffffffff1673ffffffffffffffffffffffffffffffffffffffff166370a08231336040518263ffffffff1660e01b81526004016104b691906115d8565b60206040518083038186803b1580156104ce57600080fd5b505afa1580156104e2573d6000803e3d6000fd5b505050506040513d601f19601f820116820180604052508101906105069190611188565b9050600061051e606484610ea490919063ffffffff16565b905080821015610563576040517f08c379a000000000000000000000000000000000000000000000000000000000815260040161055a906118de565b60405180910390fd5b61056c81610297565b6000600260009054906101000a900473ffffffffffffffffffffffffffffffffffffffff1673ffffffffffffffffffffffffffffffffffffffff166370a08231306040518263ffffffff1660e01b81526004016105c991906115d8565b60206040518083038186803b1580156105e157600080fd5b505afa1580156105f5573d6000803e3d6000fd5b505050506040513d601f19601f820116820180604052508101906106199190611188565b90508381101561062e5761062d8433610f14565b5b7f61f8671efc95039daa11b85615f3795af64dfd9420b17e8a38e3e2e28d1fbc7033834260405161066193929190611685565b60405180910390a150505050565b600160009054906101000a900473ffffffffffffffffffffffffffffffffffffffff1673ffffffffffffffffffffffffffffffffffffffff163373ffffffffffffffffffffffffffffffffffffffff16146106ff576040517f08c379a00000000000000000000000000000000000000000000000000000000081526004016106f69061189e565b60405180910390fd5b600260009054906101000a900473ffffffffffffffffffffffffffffffffffffffff1673ffffffffffffffffffffffffffffffffffffffff166323b872dd3330846040518463ffffffff1660e01b815260040161075e939291906115f3565b602060405180830381600087803b15801561077857600080fd5b505af115801561078c573d6000803e3d6000fd5b505050506040513d601f19601f820116820180604052508101906107b091906110f1565b5050565b6000600360009054906101000a900473ffffffffffffffffffffffffffffffffffffffff1673ffffffffffffffffffffffffffffffffffffffff166370a08231336040518263ffffffff1660e01b815260040161081191906115d8565b60206040518083038186803b15801561082957600080fd5b505afa15801561083d573d6000803e3d6000fd5b505050506040513d601f19601f820116820180604052508101906108619190611188565b90506006548110156108a8576040517f08c379a000000000000000000000000000000000000000000000000000000000815260040161089f906117de565b60405180910390fd5b6000600560009054906101000a900473ffffffffffffffffffffffffffffffffffffffff1673ffffffffffffffffffffffffffffffffffffffff1663fdc200f13386866040518463ffffffff1660e01b81526004016109099392919061162a565b602060405180830381600087803b15801561092357600080fd5b505af1158015610937573d6000803e3d6000fd5b505050506040513d601f19601f8201168201806040525081019061095b91906110f1565b90508061099d576040517f08c379a0000000000000000000000000000000000000000000000000000000008152600401610994906118be565b60405180910390fd5b600360009054906101000a900473ffffffffffffffffffffffffffffffffffffffff1673ffffffffffffffffffffffffffffffffffffffff166323b872dd33306006546040518463ffffffff1660e01b81526004016109fe939291906115f3565b602060405180830381600087803b158015610a1857600080fd5b505af1158015610a2c573d6000803e3d6000fd5b505050506040513d601f19601f82011682018060405250810190610a5091906110f1565b507f6e1596044052074a88654e8bd6521be8c832365ade90905df98c55c29ba014243360065442604051610a86939291906116cf565b60405180910390a150505050565b600160009054906101000a900473ffffffffffffffffffffffffffffffffffffffff1673ffffffffffffffffffffffffffffffffffffffff163373ffffffffffffffffffffffffffffffffffffffff1614610b24576040517f08c379a0000000000000000000000000000000000000000000000000000000008152600401610b1b9061183e565b60405180910390fd5b600260009054906101000a900473ffffffffffffffffffffffffffffffffffffffff1673ffffffffffffffffffffffffffffffffffffffff1663095ea7b333836040518363ffffffff1660e01b8152600401610b8192919061165c565b602060405180830381600087803b158015610b9b57600080fd5b505af1158015610baf573d6000803e3d6000fd5b505050506040513d601f19601f82011682018060405250810190610bd391906110f1565b50600260009054906101000a900473ffffffffffffffffffffffffffffffffffffffff1673ffffffffffffffffffffffffffffffffffffffff166323b872dd3033846040518463ffffffff1660e01b8152600401610c33939291906115f3565b602060405180830381600087803b158015610c4d57600080fd5b505af1158015610c61573d6000803e3d6000fd5b505050506040513d601f19601f82011682018060405250810190610c8591906110f1565b5050565b600160009054906101000a900473ffffffffffffffffffffffffffffffffffffffff1673ffffffffffffffffffffffffffffffffffffffff163373ffffffffffffffffffffffffffffffffffffffff1614610d19576040517f08c379a0000000000000000000000000000000000000000000000000000000008152600401610d10906117be565b60405180910390fd5b600260009054906101000a900473ffffffffffffffffffffffffffffffffffffffff1673ffffffffffffffffffffffffffffffffffffffff1663095ea7b3600460009054906101000a900473ffffffffffffffffffffffffffffffffffffffff16836040518363ffffffff1660e01b8152600401610d98929190611719565b602060405180830381600087803b158015610db257600080fd5b505af1158015610dc6573d6000803e3d6000fd5b505050506040513d601f19601f82011682018060405250810190610dea91906110f1565b50600460009054906101000a900473ffffffffffffffffffffffffffffffffffffffff1673ffffffffffffffffffffffffffffffffffffffff1663e8eda9df600260009054906101000a900473ffffffffffffffffffffffffffffffffffffffff16833060006040518563ffffffff1660e01b8152600401610e6f9493929190611779565b600060405180830381600087803b158015610e8957600080fd5b505af1158015610e9d573d6000803e3d6000fd5b5050505050565b600080831415610eb75760009050610f0e565b6000828402905082848281610ec857fe5b0414610f09576040517f08c379a0000000000000000000000000000000000000000000000000000000008152600401610f009061181e565b60405180910390fd5b809150505b92915050565b600460009054906101000a900473ffffffffffffffffffffffffffffffffffffffff1673ffffffffffffffffffffffffffffffffffffffff166369328dec600260009054906101000a900473ffffffffffffffffffffffffffffffffffffffff1684846040518463ffffffff1660e01b8152600401610f9593929190611742565b602060405180830381600087803b158015610faf57600080fd5b505af1158015610fc3573d6000803e3d6000fd5b505050506040513d601f19601f82011682018060405250810190610fe79190611188565b505050565b600081359050610ffb816119df565b92915050565b600081359050611010816119f6565b92915050565b60008151905061102581611a0d565b92915050565b60008083601f84011261103d57600080fd5b8235905067ffffffffffffffff81111561105657600080fd5b60208301915083600182028301111561106e57600080fd5b9250929050565b60008135905061108481611a24565b92915050565b60008151905061109981611a24565b92915050565b6000602082840312156110b157600080fd5b60006110bf84828501610fec565b91505092915050565b6000602082840312156110da57600080fd5b60006110e884828501611001565b91505092915050565b60006020828403121561110357600080fd5b600061111184828501611016565b91505092915050565b6000806020838503121561112d57600080fd5b600083013567ffffffffffffffff81111561114757600080fd5b6111538582860161102b565b92509250509250929050565b60006020828403121561117157600080fd5b600061117f84828501611075565b91505092915050565b60006020828403121561119a57600080fd5b60006111a88482850161108a565b91505092915050565b6111ba81611977565b82525050565b6111c98161190f565b82525050565b6111d881611989565b82525050565b60006111ea83856118fe565b93506111f78385846119bf565b611200836119ce565b840190509392505050565b6000611218600c836118fe565b91507f52656465656d65642044616900000000000000000000000000000000000000006000830152602082019050919050565b60006112586026836118fe565b91507f6f6e6c79207368656c7465722063616e2061646a75737420414156452066756e60008301527f6374696f6e7300000000000000000000000000000000000000000000000000006020830152604082019050919050565b60006112be6025836118fe565b91507f4e656564206d6f72652077616c6b20746f6b656e7320746f206275792074686960008301527f7320746f790000000000000000000000000000000000000000000000000000006020830152604082019050919050565b60006113246014836118fe565b91507f4661696c656420746f2073656e642045746865720000000000000000000000006000830152602082019050919050565b60006113646014836118fe565b91507f426f75676874206e657720646f67677920746f790000000000000000000000006000830152602082019050919050565b60006113a46021836118fe565b91507f536166654d6174683a206d756c7469706c69636174696f6e206f766572666c6f60008301527f77000000000000000000000000000000000000000000000000000000000000006020830152604082019050919050565b600061140a601d836118fe565b91507f6f6e6c79207368656c7465722063616e207769746864726177204461690000006000830152602082019050919050565b600061144a601d836118fe565b91507f6f6e6c79207368656c7465722063616e207769746864726177204554480000006000830152602082019050919050565b600061148a6021836118fe565b91507f4f6e6c79207368656c7465722063616e206465636c617265206e657720746f7960008301527f73000000000000000000000000000000000000000000000000000000000000006020830152604082019050919050565b60006114f0601c836118fe565b91507f6f6e6c79207368656c7465722063616e206465706f73697420446169000000006000830152602082019050919050565b60006115306014836118fe565b91507f736f6d657468696e672077656e742077726f6e670000000000000000000000006000830152602082019050919050565b6000611570603e836118fe565b91507f496e73756666696369656e742077616c6b546f6b656e7320746f20726564656560008301527f6d20776974682e203130302057542061726520776f72746820312044616900006020830152604082019050919050565b6115d28161196d565b82525050565b60006020820190506115ed60008301846111b1565b92915050565b600060608201905061160860008301866111b1565b61161560208301856111b1565b61162260408301846115c9565b949350505050565b600060408201905061163f60008301866111b1565b81810360208301526116528184866111de565b9050949350505050565b600060408201905061167160008301856111b1565b61167e60208301846115c9565b9392505050565b600060808201905061169a60008301866111b1565b6116a760208301856115c9565b81810360408301526116b88161120b565b90506116c760608301846115c9565b949350505050565b60006080820190506116e460008301866111b1565b6116f160208301856115c9565b818103604083015261170281611357565b905061171160608301846115c9565b949350505050565b600060408201905061172e60008301856111c0565b61173b60208301846115c9565b9392505050565b600060608201905061175760008301866111c0565b61176460208301856115c9565b61177160408301846111c0565b949350505050565b600060808201905061178e60008301876111c0565b61179b60208301866115c9565b6117a860408301856111b1565b6117b560608301846111cf565b95945050505050565b600060208201905081810360008301526117d78161124b565b9050919050565b600060208201905081810360008301526117f7816112b1565b9050919050565b6000602082019050818103600083015261181781611317565b9050919050565b6000602082019050818103600083015261183781611397565b9050919050565b60006020820190508181036000830152611857816113fd565b9050919050565b600060208201905081810360008301526118778161143d565b9050919050565b600060208201905081810360008301526118978161147d565b9050919050565b600060208201905081810360008301526118b7816114e3565b9050919050565b600060208201905081810360008301526118d781611523565b9050919050565b600060208201905081810360008301526118f781611563565b9050919050565b600082825260208201905092915050565b600061191a8261194d565b9050919050565b600061192c8261194d565b9050919050565b60008115159050919050565b600061ffff82169050919050565b600073ffffffffffffffffffffffffffffffffffffffff82169050919050565b6000819050919050565b60006119828261199b565b9050919050565b60006119948261193f565b9050919050565b60006119a6826119ad565b9050919050565b60006119b88261194d565b9050919050565b82818337600083830152505050565b6000601f19601f8301169050919050565b6119e88161190f565b81146119f357600080fd5b50565b6119ff81611921565b8114611a0a57600080fd5b50565b611a1681611933565b8114611a2157600080fd5b50565b611a2d8161196d565b8114611a3857600080fd5b5056fea2646970667358221220407ae75600b5bceab0d2211643b7536c0e64daed79c03393d597ebc1898a15fe64736f6c634300060c0033",
  "linkReferences": {},
  "deployedLinkReferences": {}
}